:020000000C945E
:100002006E000C9400000C9404010C9400000C94FB
:1000120000000C9400000C9400000C9400000C945E
:1000220000000C9400000C9400000C9400000C944E
:1000320000000C9400000C9400000C9400000C943E
:1000420000000C9400000C9400000C9400000C942E
:100052000000303132333435363738394142434487
:10006200454641726D616E2052696173690039368D
:1000720033383238330057656C636F6D6520746FA7
:1000820020746865206F6E6C696E65206C616220F9
:10009200636C61737365732064756520746F2043AC
:1000A2006F726F6E6120646973656173652E0020E3
:1000B200000080C01000A80154000C006001640020
:1000C20039006C0178000100A5016F000200A60151
:1000D200B1000200B801B4000000F894EE27ECBBB6
:1000E200F1E0FBBFEBBFE5BF8DE0A2E0BB27ED93E4
:1000F2008A95E9F780E094E0A0E6ED930197E9F7AD
:10010200E6EBF0E085919591009761F0A591B591AC
:1001120005901590BF01F00105900D920197E1F74E
:10012200FB01F0CFEFE5EDBFE4E0EEBFC0E6D1E0CA
:100132000C9429011A930A930E94AA010E94AF010A
:10014200E9F30E94AF01E9F70E94B601E9F70E94C4
:10015200B601D1F3EFE10E94BF0111F010E013C02C
:10016200EFE20E94BF0111F011E00DC0EFE40E9426
:10017200BF0111F012E007C0EFE80E94BF0111F0C9
:1001820013E001C0E7CFE02FF0E0E130A0E0FA0792
:1001920031F40E94C501AE0FBF1FAC911DC0E23009
:1001A200A0E0FA0731F40E94C501EA0FFB1FA1810A
:1001B20013C0E430A0E0FA0731F40E94C501EA0F4F
:1001C200FB1FA28109C0E830A0E0FA0731F40E94C7
:1001D200C501EA0FFB1FA3817AD0099119910895F5
:1001E2000E94AA0178940895EFEFEABBE0E0EBBB2E
:1001F2000895EBB7E068EBBFECE0E5BFE0E0E4BFF9
:10020200E0E8EABF08950A921A92FA926A937A9300
:100212008A939A93AA93BA93EA93FA93EFB7EA93DB
:10022200E1E0E4BBE5BB0E94AA0184DF0E94AA01CF
:10023200E0E0E5BBE991EFBFF991E991B991A991AC
:100242009991899179916991F990199009901895EC
:10025200CBDFCFDFA0E14FD0C3DFFFCFAA93EBB359
:10026200EF70AE2FE881E07FEA2BEBBB8DE08A9541
:10027200F1F7DA9A8DE08A95F1F7DA988DE08A95AE
:10028200F1F765C0AA93A881E9DFE881E295E883E6
:10029200A881E4DF85E88A95F1F759C0AA93E8813D
:1002A200F0E0E854FE4FE081A981AE0FEBDF598008
:1002B200488022960895A2E00E94CC01ACE0E2DFE1
:1002C200A1E00E94CC01E0E04E2E5E2E0895AA939A
:1002D200A881AA3011F0571440F0E0E0EA93439469
:1002E200A42DDCDFA881AA3091F15394D89AA88179
:1002F200C9DFD8982CC0AA93EAB3E06FEABBD29ABE
:10030200D09AD19ADA98D898D9987880E881E0582A
:10031200E093BA01E881E054E093BB01A4E1B0E0CC
:100322000E94DA010E94D2010E94D2010E94D201EF
:10033200A0E294DF88EC90E00197F1F7A8E2A2DF57
:10034200A4E0A0DFA5E89EDFA6E09CDFB4DF219653
:100352000895E0EFE7BBEFEFE8BB0895EFEFE8BBEE
:10036200E6B3EF700E2F00300895A9E1B0E00E94CD
:10037200DA01E6B3EF700E2F00300895E8BBE6B362
:10038200EF700E2F00300895E12FA8EAB1E0F0E0FF
:100392000E94E40108950E944301A3E0B0E00C949E
:1003A200DA01A0E30E942F0188EC90E00197F1F7B7
:1003B2000895109639F080ED97E00197F1F7A8952E
:1003C2001197C9F70895EE0FFF1FEE0FFF1F089553
:00000001FF
