:0A0000000C948B000C9400000C948B
:10000A0000000C9400000C9400000C9400000C9466
:10001A0000000C9400000C9400000C9400000C9456
:10002A0000000C94B8000C9400000C941A010C9473
:10003A0000000C9400000C9400000C9400000C9436
:10004A0000000C9400000C9400001027E8036400E0
:10005A000A00010000100001100001000000000069
:10006A00000000000000000020000D0A546865200E
:10007A006C656E677468206F6620746865206672A6
:10008A00616D65206973206E6F7420636F7272658B
:10009A0063742E0D0A0028313233343529000D0AD3
:1000AA004672616D6520697320636F72726563744D
:1000BA002E0D0A003132333435000D0A4672616D55
:1000CA0065206D757374206265203520696E7465CC
:1000DA00676572732E0D0A0080C001000200660077
:1000EA000A00040068002C006001740008008C01FA
:1000FA00A00016009401A8000600AA01BE001E0076
:10010A00B001C40002002803E2000000F894EE27C0
:10011A00ECBBF1E0FBBFEBBFE5BF8DE0A2E0BB2784
:10012A00ED938A95E9F780E094E0A0E6ED930197D4
:10013A00E9F7E4EEF0E085919591009761F0A591D9
:10014A00B59105901590BF01F00105900D920197A8
:10015A00E1F7FB01F0CFEFE5EDBFE4E0EEBFC0E66B
:10016A00D1E00C945F01AA93BA93EA93FA93EFB79A
:10017A00EA931A930A931BB10CB1E12FEC7121F5A2
:10018A00A8E1B3E00E94F8023197E451FE4F0083E0
:10019A00A0911803B0911903AC32E1E0BE0729F42B
:1001AA00E0E0E0931803E0931903ACE1B3E00E94A6
:1001BA00F802EC32A1E0FA0739F4E0E0E0931C031C
:1001CA00E0931D03689420F809911991E991EFBF12
:1001DA00F991E991B991A99118951A93E0911C03A3
:1001EA00F0911D033097D1F3AAE1B3E00E94F8021F
:1001FA003197E451FE4F1081A0911A03B0911B036D
:10020A00AC32E1E0BE0729F4E0E0E0931A03E093A0
:10021A001B03F894ACE1B3E0ED91FD913197FE93A5
:10022A00EE937894E12F19910895AA93EA93FA9399
:10023A00EFB7EA93E0912703E030A9F0E150E093A9
:10024A002703E0912603EF5FE0932603E150F0E0F5
:10025A00E25EFC4FE081ECB9A0912603A83019F4C4
:10026A00E0E0E0932603E991EFBFF991E991A991C2
:10027A001895AA93A0912703A830E1F3F894E09186
:10028A002703E03011F45D9911C0E82D8394F0E062
:10029A00E25EFC4FA881A083E8E0E81509F488240F
:1002AA00E0912703EF5FE093270302C0E881ECB9EE
:1002BA00789403C1EFEFE4BBE0E0E5BBE1E0E1BB2A
:1002CA00E0E0EBB9E8EDEAB9E6E8E0BDE0E0E0BD80
:1002DA00E3E3E9B9A0E1C4D0789444245524CC24BA
:1002EA00DD24F5013196CE16DF065CF4AEECB1E002
:1002FA00AC0DBD1DE0E2EC93F60131966F0131972A
:10030A00F0CF6BDF9E2EF201E253FE4F9082F20194
:10031A0031962F01EFE7E91519F0E8E0E91519F42C
:10032A00F20132972F01E9E2E91511F4520101C0F5
:10033A00E8CFEEECF1E0FA93EA93A2E7B0E00E948C
:10034A00B4023F01E7E0F0E0AE16BF0624F450D055
:10035A00A0E6B1E018C07A926A92ACE8B1E00E94D5
:10036A007402E03069F4A4E9B1E00E94640240D06A
:10037A00E0E0EA93A0E02BD0AAEAB1E067D005C09A
:10038A0037D0A0EBB1E00E946402A7CFFFCFAA93B7
:10039A00E5B3EF70AE2FE881E07FEA2BE5BB8DE095
:1003AA008A95F1F7AA9A8DE08A95F1F7AA988DE0D5
:1003BA008A95F1F782C0AA93A881E9DFE881E295DC
:1003CA00E883A881E4DF85E88A95F1F776C0AA93E5
:1003DA00E881F0E0E85DFC4FE081A981AE0FEBDF38
:1003EA00E981E0932C03E881E0932D032296089596
:1003FA00A2E00E94FE02ACE0DEDFA1E00E94FE0263
:10040A00E0E0E0932D03E0932C030895AA93A881DA
:10041A00AA3031F0E0912E03A0912C03AE1760F0C0
:10042A00E0E0EA93A0912D03AF5FA0932D03CFDF05
:10043A00A881AA3009F441C0E0912C03EF5FE09350
:10044A002C03A89AA881B7DFA89837C0BA93AA93B1
:10045A001A930E94040319F0A12FD8DFFACF3CC0E7
:10046A00AA93E4B3E06FE4BBA29AA09AA19AAA98CD
:10047A00A898A998E881E0932E03E058E0932A030C
:10048A00E881E054E0932B03A4E1B0E00E941B034F
:10049A000E940C030E940C030E940C03A0E277DF67
:1004AA0088EC90E00197F1F7A8E285DFA4E083DF0A
:1004BA00A5E881DFA6E07FDF9BDF21960895BA9346
:1004CA00AA931A930E94040321F0A12F0E943E01CD
:1004DA00F9CFAAE00E943E01188123960895BA93A3
:1004EA00AA93E991F991A991B9916D9171916717BF
:1004FA0021F46623D1F7EE270895671BE1F3E1E0C3
:10050A0008F4E2500895BA93AA93BB81AA816C9128
:10051A00662361F0F981E881C895002029F03196B7
:10052A006015D1F7FD0104C01196F1CFEE27FF2720
:10053A000C94B202BA93AA93BB81AA8188279927FD
:10054A006D91662349F0F981E8810590002021F038
:10055A006015D9F70196F4CFFC0124960895BA9351
:10056A00AA931A930A93EC81FD81309779F4E0916A
:10057A002F03F0913003309719F4E0E0F0E02FC038
:10058A00E0912F03F0913003EC83FD830E94140362
:10059A000E949F02AC81BD81EA0FFB1FEC83FD83A1
:1005AA00AC81BD81EC91E03041F4E0E0E0932F03AF
:1005BA00E0933003E0E0F0E012C00E9414030E94CE
:1005CA0088028F01309729F0D8010F5F1F4FE0E0B2
:1005DA00EC9300932F0310933003EC81FD81198172
:1005EA00088126960895ED91FD913196FE93EE933A
:1005FA0008950E94E001A3E0B0E00C941B03A981D6
:10060A00BA81ED91A983BA831E2FE0300895A0E341
:10061A000E94CC0188EC90E00197F1F70895EC81F3
:10062A00FD81FA93EA93AC81BD810895109639F061
:10063A0080ED97E00197F1F7A8951197C9F708950A
:00000001FF
