:0E0000000C9439040C9400000C9400000C9435
:10000E0000000C9400000C9400000C9400000C9462
:10001E0000000C9466040C9400000C9400000C94E8
:10002E0000000C9400000C9400000C9400000C9442
:10003E0000000C9400000C9400000C9400000C9432
:10004E0000000C9400000507206000000000000076
:10005E00005F00000007000700147F147F14242A9D
:10006E007F2A122313086462364955225000050375
:10007E000000001C2241000041221C00082A1C2AFC
:10008E000808083E08080050300000080808080854
:10009E00003030000020100804023E5149453E0059
:1000AE00427F400042615149462141454B3118146F
:1000BE00127F1027454545393C4A4949300171099F
:1000CE0005033649494936064949291E0036360088
:1000DE0000005636000000081422411414141414A3
:1000EE0041221408000201510906324979413E7E2F
:1000FE001111117E7F494949363E414141227F41CE
:10010E0041221C7F494949417F090901013E414174
:10011E0051327F0808087F00417F41002040413F57
:10012E00017F081422417F404040407F0204027F3D
:10013E007F0408107F3E4141413E7F090909063E7A
:10014E004151215E7F09192946464949493101012C
:10015E007F01013F4040403F1F2040201F7F20185D
:10016E00207F631408146303047804036151494526
:10017E004300007F4141020408102041417F0000EE
:10018E0004020102044040404040000102040020ED
:10019E00545454787F4844443838444444203844B6
:1001AE0044487F3854545418087E090102081454E8
:1001BE00543C7F0804047800447D40002040443DB8
:1001CE0000007F10284400417F40007C0418047812
:1001DE007C0804047838444444387C141414080809
:1001EE001414187C7C080404084854545420043F0A
:1001FE004440203C4040207C1C2040201C3C403091
:10020E00403C44281028440C5050503C4464544CFC
:10021E0044000836410000007F000000413608000F
:10022E0002010204027F4141417F80004000FFFF36
:10023E00FFFFFFFFFFFFFFFFFFFFFFFFFFFFFFFFC0
:10024E00FFFFFFFFFFFFFFFFFFFFFFFFFFFFFFFFB0
:10025E00FFFFFFFFFFFFFFFFFFFFFFFFFFFFFFFFA0
:10026E00FFFFFFFFFFFFFFFFFFFFFFFFFFFFFFFF90
:10027E00FFFFFFFFFFFFFFFFFFFFFFFFFFFFFFFF80
:10028E00FFFFFFFFFFFFFFFFFFFFFFFFFFFFFFFF70
:10029E00FFFFFFFFFFFFFFFFFFFFFFFFFFFFFFFF60
:1002AE00FFFFFFFFFFFFFFFFFFFFFFFFFFFFFFFF50
:1002BE00FFFFFFFFFFFFFFFFFFFFFFFFFFFFFFFF40
:1002CE00FFFFFFFFFFFFFFFFFFFFFFFFFFFFFFFF30
:1002DE00FFFFFFFFFFFFFFFFFFFFFFFFFFFFFFFF20
:1002EE00FFFFFFFFFFFFFFFFFFFFFFFFFFFFFFFF10
:1002FE00FFFFFFFFFFFFFFFFFFFFFFFFFFFFFFFF00
:10030E00FFFFFFFFFFFFFFFFFFFFFFFFFFFFFFFFEF
:10031E00FFFFFFFFFFFFFFFFFFFFFFFFFFFFFFFFDF
:10032E00FFFFFFFFFFFFFFFFFFFFFFFFFFFFFFFFCF
:10033E00FFFFFFFFFFFFFFFFFFFFFFFFFFFFFFFFBF
:10034E00FFFFFFFFFFFFFFFFFFFFFFFFFFFFFFFFAF
:10035E00FFFFFFFFFFFFFFFFFFFFFFFFFFFFFFFF9F
:10036E00FFFFFFFFFFFFFFFFFFFFFFFFFFFFFFFF8F
:10037E00FFFFFFFFFFFFFFFFFFFFFFFFFFFFFFFF7F
:10038E00FFFFFFFFFFFFFFFFFFFFFFFFFFFFFFFF6F
:10039E00FFFFFFFFFFFFFFFFFFFFFFFFFFFFFFFF5F
:1003AE00FFFFFFFFFFFFFFFFFFFFFFFFFFFFFFFF4F
:1003BE00FFFFFFFFFFFFFFFFFFFFFFFFFFFFFFFF3F
:1003CE00FFFFFFFFFFFFFFFFFFFFFFFFFFFFFFFF2F
:1003DE00FFFFFFFFFFFFFFFFFFFFFFFFFFFFFFFF1F
:1003EE00FFFFFFFFFFFFFFFFFF3F1F0F0707231159
:1003FE00000000000183870F1F1F3FFFFFFFFFFF5D
:10040E00FFFFFFFFFFFFFFFFFFFFFFFFFFFFFFFFEE
:10041E00FFFFFFFFFFFFFFFFFFFFFFFFFFFFFFFFDE
:10042E00FFFFFFFFFFFFFFFFFFFFFFFFFFFFFFFFCE
:10043E00FFFFFFFFFFFFFFFFFFFFFFFFFFFFFFFFBE
:10044E00FFFFFFFFFFFFFFFFFFFFFFFFFFFFFFFFAE
:10045E00FFFFFFFFFFFFFFFFFFFFFFFFFFFFFFFF9E
:10046E00FFFFFFFFFFFFFFFFFFFFFCF8F0E0E0C024
:10047E0080800000684D0080C0C0E0E0F0FBFFFF10
:10048E00FFFFFFFFFFFFFFFFFFFFFFFFFFFFFFFF6E
:10049E00FFFFFFFFFFFFFFFFFFFFFFFFFFFFFFFF5E
:1004AE00FFFFFFFFFFFFFFFFFFFFFFFFFFFFFFFF4E
:1004BE00FFFFFFFFFFFFFFFFFFFFFFFFFFFFFFFF3E
:1004CE00FFFFFFFFFFFFFFFFFFFFFFFFFFFFFFFF2E
:1004DE00FFFFFFFFFFFFFFFFFFFFFFFFFFFFFFFF1E
:1004EE00FFFFFFFFFFFFFFFFFFFFFFFFFFFFFFFF0E
:1004FE00FFFFFEFEFFFFFFFFFFFFFFFFFFFFFFFF00
:10050E00FFFFFFFFFFFFFFFFFFFFFFFFFFFFFFFFED
:10051E00FFFFFFFFFFFFFFFFFFFFFFFFFFFFFFFFDD
:10052E00FFFFFFFFFFFFFFFFFFFFFFFFFFFFFFFFCD
:10053E00FFFFFFFFFFFFFFFFFFFFFFFFFFFFFFFFBD
:10054E00FFFFFFFFFFFFFFFFFFFFFFFFFFFFFFFFAD
:10055E00FFFFFFFFFFFFFFFFFFFFFFFFFFFFFFFF9D
:10056E00FFFFFFFFFFFFFFFFFFFFFFFFFFFFFFFF8D
:10057E00FFFFFFFFFFFFFFFFFFFFFFFFFFFFFFFF7D
:10058E00FFFFFFFFFFFFFFFFFFFFFFFFFFFFFFFF6D
:10059E00FFFFFFFFFFFFFFFFFFFFFFFFFFFFFFFF5D
:1005AE00FFFFFFFFFFFFFFFFFFFFFFFFFFFFFFFF4D
:1005BE00FFFFFFFFFFFFFFFFFFFFFFFFFFFFFFFF3D
:1005CE00FFFFFFFFFFFFFFFFFFFFFFFFFFFFFFFF2D
:1005DE00FFFFFFFFFFFFFFFFFFFFFFFFFFFFFFFF1D
:1005EE00FFFFFFFFFFFFFFFFFFFFFFFFFFFFFFFF0D
:1005FE00FFFFFFFFFFFFFFFFFFFFFFFFFFFFFFFFFD
:10060E00FFFFFFFFFFFFFFFFFFFFFFFFFFFFFFFFEC
:10061E00FFFFFFFFFFFFFFFFFFFFFFFFFFFFFFFFDC
:10062E00FFFFFFFFFFFFFFFFFFFFFFFFFFFF0000CA
:10063E00FC00FE00130013001300FE00FC0000007F
:10064E00FF00FF0039006900CF0086000000FC00AB
:10065E00FE00130013001300FE00FC000000FF005C
:10066E00FF0039006900CF00860000000000FE0088
:10067E00130013001300FE00FC000000FF00FF003B
:10068E0039006900CF00860000000000FC00130056
:10069E0013001300FE00FC000000FF00FF003900F5
:1006AE006900CF00860000000000FC00FE00130071
:1006BE001300FE00FC000000FF00FF00390069007F
:1006CE00CF00860000000000FC00FE0013001300A7
:1006DE00FE00FC000000FF00FF0039006900CF00A3
:1006EE00860000000000FC00FE0013001300FE0058
:1006FE00FC000000FF00FF0039006900CF008600FB
:10070E0000000000FC00FE00130013001300FC00AC
:10071E000000FF00FF0039006900CF0086000000D6
:10072E000000FC00FE00130013001300FE0000008A
:10073E00FF00FF0039006900CF00860000000000B6
:10074E00FC00FE00130013001300FE00FC00FF006F
:10075E00FF0039006900CF00860000000000FC0099
:10076E00FE00130013001300FE00FC000000FF004B
:10077E0039006900CF00860000000000FC00FE007A
:10078E00130013001300FE00FC000000FF003900F0
:10079E006900CF00860000000000FC00FE00130080
:1007AE0013001300FE00FC000000FF00FF006900B4
:1007BE00CF00860000000000FC00FE0013001300B6
:1007CE001300FE00FC000000FF00FF003900CF0008
:1007DE00860000000000FC00FE0013001300130052
:1007EE00FE00FC000000FF00FF00390069008600DB
:1007FE0000000000FC00FE00130013001300FE00BA
:10080E00FC000000FF00FF0039006900CF0000006F
:10081E000000FC00FE00130013001300FE00FC009D
:10082E000000FF00FF0039006900CF0086000001C4
:10083E0003070F1F3F7FFF000A003700080001006B
:10084E002D4E414E00494E460000010091014608D2
:10085E00010093014808010095014A0801009A0120
:10086E004C080000F894EE27ECBBF1E0FBBFEBBFA9
:10087E00E5BF8DE0A2E0BB27ED938A95E9F780E016
:10088E0094E0A0E6ED930197E9F7E8E5F8E08591AD
:10089E009591009761F0A591B59105901590BF01C6
:1008AE00F00105900D920197E1F7FB01F0CFEFE516
:1008BE00EDBFE4E0EEBFC0E6D1E00C9486040A92F0
:1008CE001A92FA926A937A938A939A93AA93BA9304
:1008DE00EA93FA93EFB7EA93E5E8EDBDEEEEECBDE1
:1008EE007FD1E991EFBFF991E991B991A9919991D0
:1008FE00899179916991F990199009901895269797
:10090E001BD0E4E5F0E0E883F983E0E0EA83EB83D3
:10091E00EC83ED83DE010E94FF06D9D156D1A8EB00
:10092E00BBE00E9471107894A8E8B3E10E947110A8
:10093E00F8940CD02696FFCFE0E0EABBEBBBE7BB0A
:10094E00E8BBE4BBE5BBE1BBE2BB08950E94D70E5A
:10095E000E94E10EE0E8E2BBE0917D01F0917E01A4
:10096E00ACE3B6E0EE0FFF1FEA0FFB1F0E94ED0E89
:10097E00A2E0B0E00E947110E0E0E2BBE0917D01E8
:10098E00F0917E01EE0FFF1FE45BF94F0E94ED0E1A
:10099E00ADE7B1E00E94F70EE0918501F09186017E
:1009AE00A0917D01B0917E01EA17FB0741F4E09121
:1009BE008701F0918801E0937D01F0937E01E09133
:1009CE008301F09184013196A7E0B0E00E947C1281
:1009DE00E0938301F0938401A2E0B0E00E947110D5
:1009EE00AFE7B1E00E949812EF5FFF4F6F4F7F4F5E
:1009FE000E94A212A0917F01B0918001809181018D
:100A0E0090918201A83CE0E0BE07E0E08E07E0E0B6
:100A1E009E0751F4E0E0E0937F01E0938001E093C4
:100A2E008101E093820101C095CFE0918501F091A3
:100A3E008601E830A0E0FA0749F4E8E1F0E00E9410
:100A4E00FD0EE0E1F0E00E94020FBEC0E831A0E032
:100A5E00FA0749F4E8E2F0E00E94FD0EE0E2F0E071
:100A6E000E94020FB1C0E832A0E0FA0749F4E8E3B1
:100A7E00F0E00E94FD0EE0E3F0E00E94020FA4C041
:100A8E00E833A0E0FA0749F4E8E4F0E00E94FD0E36
:100A9E00E0E4F0E00E94020F97C0E834A0E0FA070D
:100AAE0049F4E8E5F0E00E94FD0EE0E5F0E00E947A
:100ABE00020F8AC0E835A0E0FA0749F4E8E6F0E054
:100ACE000E94FD0EE0E6F0E00E94020F7DC0E836C7
:100ADE00A0E0FA0749F4E8E7F0E00E94FD0EE0E737
:100AEE00F0E00E94020F70C0E837A0E0FA0749F468
:100AFE00E8E8F0E00E94FD0EE0E8F0E00E94020F50
:100B0E0063C0E838A0E0FA0749F4E8E9F0E00E9493
:100B1E00FD0EE0E9F0E00E94020F56C0E839A0E0B9
:100B2E00FA0749F4E8EAF0E00E94FD0EE0EAF0E090
:100B3E000E94020F49C0E83AA0E0FA0749F4E8EB38
:100B4E00F0E00E94FD0EE0EBF0E00E94020F3CC0D0
:100B5E00E83BA0E0FA0749F4E8ECF0E00E94FD0E55
:100B6E00E0ECF0E00E94020F2FC0E83CA0E0FA0794
:100B7E0049F4E8EDF0E00E94FD0EE0EDF0E00E9499
:100B8E00020F22C0E83DA0E0FA0749F4E8EEF0E0DB
:100B9E000E94FD0EE0EEF0E00E94020F15C0E83E4E
:100BAE00A0E0FA0749F4E8EFF0E00E94FD0EE0EF56
:100BBE00F0E00E94020F08C0E83FA0E0FA0721F41F
:100BCE000E94E10E0E94D70EC5CEE0E0EA93EA93B2
:100BDE00E8E3F2E0FA93EA93A0E00E943D0A08955A
:100BEE00A1E9B1E00E94F70EA0919101B09192019E
:100BFE00DC9749F4A3E9B1E00E94F70EE0E0E09340
:100C0E009101E0939201A0919301B0919401DC9730
:100C1E0049F4A5E9B1E00E94F70EE0E0E0939301FC
:100C2E00E0939401A0919501B09196011C9729F43F
:100C3E00E0E0E0939501E09396013CD10E94070F0E
:100C4E00AEE10E946D0DE3E0E0936801E4E0E09315
:100C5E0069010E94070FA2E00E946D0D0E940C0F09
:100C6E000E94130F0E944A0E0E94220F0E94290F0B
:100C7E000E94130F0E94BE0D0E94220F0E94300F81
:100C8E000E94370F0E94420F0E944A0E0E94510F7F
:100C9E000E94290F0E94420F0E94BE0D0E94510F0A
:100CAE000E94300F0E94370F0E94580F0E944A0E6A
:100CBE000E94670F0E94290F0E94580F0E94BE0DBE
:100CCE000E94670F0E94300F0E94370F0895E0E0D8
:100CDE00EFBDE4E0EEBDE5E8EDBDEEEEECBDE0E02F
:100CEE00E7BDE6BDEBBDEABDE9BDE8BDE4E0E9BFA9
:100CFE0008950000909A0000089590989498959801
:100D0E0008951A93F6DF13B39098E12F1991089571
:100D1E00AA931A93E0E0E4BB919A9298E981EF5F6F
:100D2E001E2F10FF02C0949A01C0949811FF02C0AA
:100D3E00959A01C09598E5DFE078E9F718811CC116
:100D4E00AA93A981E5DF0E946E0F16C1E09198016A
:100D5E00EA93E0919701EF73E064AE2FF1DFE0913B
:100D6E009801EA93E0919901E86BAE2FE9DF0895BF
:100D7E00AA93E981E0939701E295EF70E695E695E7
:100D8E00E0939801E881E0939901E0DFF5C0A0912E
:100D9E009701AF5FA0939701A03818F0E0E0E093C1
:100DAE009701E0919701EF7331F4E0919701EA9387
:100DBE00A0919901DDDF0895AA93A0919801A8DF73
:100DCE00929A0E946E0F21960895A0919801A0DF2D
:100DDE00E0E0E4BB919A929A94DF0895AA93E98198
:100DEE00EA93E9810E94770FF0DFB0DFEEDFC4C037
:100DFE00BA93AA931A93889A899A8A9A8B9A939AF3
:100E0E008C9A8D9A7ADF9398A4E6B0E00E947110C6
:100E1E00939A10E0123040F41A93AFE391DF1A93D5
:100E2E001395A0EC8DDFF6CFE1E0E0936001E0E0FA
:100E3E00E0936101E981FA813097A9F0A981BA8125
:100E4E000E949412E0936401F093650112960E9441
:100E5E009412E0937901F0937A01A981BA811496E4
:100E6E000E9494120AC0E0E0F0E0E0936401F09377
:100E7E006501E0937901F0937A01E0937B01F093A1
:100E8E007C01E1E0E0936601E09367010E940C0FA4
:100E9E00E1E0E0937001E1E7F1E0FA93EA93EFEF1E
:100EAE00EA93A8E0B0E00E94560E04D0E1E018816B
:100EBE00239608950E94EB1200E030E0E09161016C
:100ECE00E03009F00FEF383078F4E0E0EA93A32F2A
:100EDE003F5F4EDF10E0A12F1F5FA03820F4A02F40
:100EEE000E947D0FF8CFEFCFE0E0EA93A0E040DF65
:100EFE00E0E0EA93A0E006D30E94F2122496089551
:100F0E00AA931A930A93AC81A03818F4AB81A0343B
:100F1E0008F016C0EC81EA93AC8160DF1E2F16DF5D
:100F2E00EB81E770A1E00E9430120E2FEA81E030D3
:100F3E0011F0102B03C0E02FE0951E23A12F3CDFF4
:100F4E001981088125960895AA93A981A03818F4CD
:100F5E00A881A03410F0E0E00FC0E981EA93A981E6
:100F6E003DDF1E2EE881E770A1E00E943012E121E4
:100F7E0011F0E1E001C0E0E022960895AA931A93E1
:100F8E00ED81EA93AD812ADF1E2FE0DEE981E730A5
:100F9E0011F0E83039F4EB81EA93AA810E94710EC8
:100FAE00EB8308C0E33021F4EB81E095EB8302C0C4
:100FBE00E03021F4EA81E0951E2302C0E23029F4EC
:100FCE00EA81AB81EA231E2B0EC0E13029F4EA81BF
:100FDE00AB81EA231E2707C0E43029F4EA81E095AD
:100FEE00AB81EA2B1E23A12F0E947D0F188126961E
:100FFE000895AA9323970E94E912A889A03848F46D
:10100E00AF85A03430F4AE85A03019F0AD85A03098
:10101E0009F4C8C1EE85E887A889BB27EE85F0E004
:10102E00AE0FBF1FA138E0E0BE0720F0A889E0E8B0
:10103E00EA1BEE872D85AF85BB27ED85F0E0AE0F61
:10104E00BF1FA134E0E0BE0720F0AF85E0E4EA1B4D
:10105E00ED87A985A63009F05BC0EC85E13009F477
:10106E00A1C1E33039F4E0917B01F0917C0130971E
:10107E0009F498C10885ED85E695E695E6953E2F2F
:10108E00E22FE77019F4AD852A17E9F0A02FBB27E0
:10109E00E32FF0E00E944F12AA85BB850E94810FBC
:1010AE00269526952695532F5F935F5FE22FAF917E
:1010BE00EA1748F0102FE12F1150E03019F00E947E
:1010CE00860FF9CFF1CFAE850A1711F1EE85AA85FD
:1010DE00BB85F0E00E94810FED85E77009F03F5F60
:1010EE0020E02F932F5FE32FAF91AE1788F41E856C
:1010FE001F931F5FE02FAF91AE1718F40E94860F5B
:10110E00F7CFEE85AE81BF81F0E00E94810FE9CF6F
:10111E00EF85E7703E2FED85E03009F443C1EA8597
:10112E00FB85EE83FF8310E00889303009F065C03F
:10113E00AD85A83008F45CC0E985E03011F0E330ED
:10114E0009F402C0E73009F402C0E83009F402C025
:10115E00E63009F402C0E93009F402C0EA3021F4A5
:10116E000A93E8890E94770F1F931F5FEE85AF9158
:10117E00AE17B8F5A985A63061F427DEE7DD0E942B
:10118E00930FFA93EA9321DEAE2F0E94B80EFFDD85
:10119E0027C0E985E93011F450E00EC0EA3011F4B1
:1011AE005FEF0AC00E94930F0E949C0F5E2FE9858D
:1011BE00E73011F0E83021F40E94A20F5E2F06C036
:1011CE00E33011F4509502C0E03021F4A52F0E94B7
:1011DE007D0F06C00E94A60FEFEFEA93AD85CEDE1F
:1011EE00C3CFEF85E85FEF87ED85E850ED87D1C07F
:1011FE005D8520E0E0E0ED877AC0E32FAD85AE0F90
:10120E00A93020F42D85E0E0ED8703C0E8E0E31B74
:10121E002E2F3A93A22F0E94660E4E2FE985E630AE
:10122E00F1F41F931F5FEE85AF91AE17B8F40E94D5
:10123E00AC0FAE2FE32F0E9438120E94B30FE32F94
:10124E00A42F0E943812E095E1215E2B0E94930F8D
:10125E00FA93EA93A52F0E94B80EE3CF2CC0E93083
:10126E0011F450E003C0EA30A9F45FEF0E94A20F20
:10127E00AE2FE32F0E9430125E2F1F931F5FEE855D
:10128E00AF91AE1730F40E94A60F4A93A0E076DE1F
:10129E00F4CF11C01F931F5FEE85AF91AE1758F4B8
:1012AE000E94BE0FAE2FE32F0E943012EA934A9394
:1012BE00AD8564DEEFCFED85E03009F473C0AD850A
:1012CE00A83028F4ED85E21B5E2FE0E003C0532F1B
:1012DE00ED85E850ED8710E0EF85E85FEF87E8E0F9
:1012EE00E31B2E2F0889EA85FB85EE83FF83E52F0E
:1012FE00F0E0E45CF74F4491E985E630F1F41F939A
:10130E001F5FEE85AF91AE17B8F40E94AC0FAE2FF3
:10131E00E22F0E9430120E94B30FE22FA42F0E94E0
:10132E003012E095E1215E2B0E94930FFA93EA931F
:10133E00A52F0E94B80EE3CF2CC0E93011F450E077
:10134E0003C0EA30A9F45FEF0E94A20FAE2FE22F86
:10135E000E9438125E2F1F931F5FEE85AF91AE175E
:10136E0030F40E94A60F4A93A0E008DEF4CF11C01D
:10137E001F931F5FEE85AF91AE1758F40E94BE0FFC
:10138E00AE2FE22F0E943812EA934A93AD85F6DD16
:10139E00EFCFE885AA85BB85F0E0EA0FFB1FEA8751
:1013AE00FB87B9CE0E94F012619608950E94CB0F72
:1013BE0024F0E0E0F0E00C946F0EA881B981A03823
:1013CE00E0E0BE0724F0EFE7F0E00C946F0EE8814A
:1013DE00F9810C946F0E0E94CB0F24F0E0E0F0E048
:1013EE000C946F0EA881B981A034E0E0BE0724F002
:1013FE00EFE3F0E00C946F0EE881F9810C946F0E20
:10140E00AA93E981EA93E981EA93A091600178DDDC
:10141E000C946F0EAA931A93AA81A03818F4A9817E
:10142E00A03438F0E0E0F0E060E070E018810C9459
:10143E00B60EE981E7701E2FE981E695E695E695F1
:10144E00E983103011F0EF5FE983AA81BB2788276B
:10145E009927E981FF27662777270E945712EC5FAD
:10146E00FF4F6F4F7F4F18810C94B60EAA930E94B8
:10147E00EB12AC81A53018F5ED81FE8105910E942D
:10148E00D20F15910E94D20F25910E94D20F359145
:10149E00ED83FE83E885EA93E885EA930A932A931F
:1014AE00E1E0EA93EA85FB85FA93EA93AB85A1DD49
:1014BE000A93A22FAFDF0E94F2120C94480EE0E0C6
:1014CE00F0E060E070E00E94F2120C94480EAA93D5
:1014DE00EA81EA93EA81EA93E0916901AA81EA231B
:1014EE0019F0E091600102C0E0916101AE2F08DDBC
:1014FE00E881EE0FE883E03011F4E1E0E883E88163
:10150E000C94B60EAA93A981BB2750DFE09362011B
:10151E00A881BB2760DFE09363010C946F0EAA9342
:10152E002B970E94E912AC89BB2740DFEC8BAA896E
:10153E00BB273CDFEA8BAB89BB274DDFEB8BA98941
:10154E00BB2749DFE98BEA89E0936201E989E093E1
:10155E006301E1E0E887E989AB89EA1771F51C8937
:10156E00AA891A1731F41A93EC89EA93A1E0AFDF36
:10157E00C8C0AA891A1730F4EA89E11B0E2F41E080
:10158E0050E006C0AA89E12FEA1B0E2F4FEF5FEF46
:10159E003B89E0E0EE830E94D50F38F41A933A931C
:1015AE003395AA8594DFEF83F6CFEF81E887140F8A
:1015BE00E02F0150E03061F7A4C0EA89AC89EA1748
:1015CE0039F53B89A9893A1730F4E989E31B2E2FA7
:1015DE00E1E0F0E006C0A989E32FEA1B2E2FEFEF22
:1015EE00FFEFED87FE871C89E0E0EE830E94D50FAA
:1015FE0030F41A9313950E94DD0FEF83F7CFEF812E
:10160E00E887ED853E0FE22F2150E03061F779C07B
:10161E00E0E0EE830E94D50F08F073C01C893B8971
:10162E00E1E02E2F0E2FAA89BB27EC89F0E0AE1B2E
:10163E00BF0BAD0155232AF40FEFFA010E942412BD
:10164E00AF01FA01EE0FFF1FEF87F88BA989BB27B9
:10165E00EB89F0E0AE1BBF0BAD87BE87AE85AA232C
:10166E003AF42FEFED85FE850E942412ED87FE875A
:10167E00ED85FE85EE0FFF1FEB87FC871A933A93DD
:10168E00A1E025DFE887E0E0E987EA87AD85BE8542
:10169E004A175B07BCF0100FEB85FC850E94E10F2B
:1016AE00A985BA854A175B072CF4320FAF85B88926
:1016BE000E94E80F1A930E94DD0FE887EA89E1176E
:1016CE0051F718C0320FEF85F8890E94E10FED85B2
:1016DE00FE85A985BA85EA17FB072CF4100FAB859A
:1016EE00BC850E94E80F1A930E94DD0FE887E989F6
:1016FE00E31741F7EB89EF5FEB8BE989EF5FE98B3E
:10170E0089CF0E94F01265960895BA93AA932397F3
:10171E000E94E912ED85E887E0916801EF83E09180
:10172E006001EE83AA89BB27EF850E94EF0FE8893F
:10173E000E94F60FE8890E94FD0F71F0E885E078AF
:10174E00F1F4AD85BE85EAE5F0E00E9405101CF0CF
:10175E000E940E100CF413C0332312F00E941310CB
:10176E00AF81A23020F02230E0E03E070CF407C03B
:10177E000E94171021F40A93A22FA15041DEE88592
:10178E00E878E83891F0E885E078C9F4AD85BE8553
:10179E00A25FBE4F0E9420103CF0AD85BE85A25FB9
:1017AE00BE4F0E9425100CF40AC00E942A1038F079
:1017BE000E94311021F40A93A42FAF5F21DEAA8973
:1017CE00BB27EF85F0E0AE1BBF0B8D0111230AF492
:1017DE0045C0E885E278E23891F0E885E07811F5C9
:1017EE00AD85BE85A65ABF4F0E9420103CF0AD8538
:1017FE00BE85A65ABF4F0E9425100CF413C033238A
:10180E0012F00E941310AF81A23020F02230E0E0DF
:10181E003E070CF407C00E94171021F40A93A22F62
:10182E00A150EEDDE885E478E43871F0E885E078E3
:10183E00A9F4AD85BE85EEE0F1E00E9405101CF026
:10184E000E940E100CF40AC00E942A1038F00E945A
:10185E00311021F40A93A42FAF5FD2DDAA89BB27E2
:10186E00E8890E94EF0FEF850E94F60FEF850E9428
:10187E00FD0F81F0E885E078F1F4EB85FC85AD8510
:10188E00BE85AE17BF072CF0E985FA85EA17FB0770
:10189E000CF411C033237AF00E941310AF81A230E2
:1018AE0050F0E02FEE5F0E943A1029F4E02FEF5F28
:1018BE00EA93A22FA5DDE885E878E83871F0E8858F
:1018CE00E078C1F4AD85BE85E8E6F1E00E94051032
:1018DE001CF00E940E100CF40DC00E942A1050F045
:1018EE00E02FEE5F0E94421029F4E02FEF5FEA93A3
:1018FE00A42F86DDAA89BB27E889F0E0AE1BBF0BBB
:10190E008D0111230AF450C0E885E278E23871F0B7
:10191E00E885E07809F5AD85BE85E4EBF0E00E9440
:10192E0005101CF00E940E100CF416C03323A2F00A
:10193E000E941310AF81A23020F00230E0E01E07AB
:10194E000CF40AC0E02FE2500E943A1029F4E02F66
:10195E00E150EA93A22F54DDE885E478E43891F063
:10196E00E885E07809F5AD85BE85AC54BF4F0E9481
:10197E0020103CF0AD85BE85AC54BF4F0E942510A3
:10198E000CF412C00E942A1020F00230E0E01E0774
:10199E000CF40AC0E02FE2500E94421029F4E02F0E
:1019AE00E150EA93A42F2CDD0E94F0126396089565
:1019BE00AA930E94EB12AF81BB27ED81F0E0AE1B24
:1019CE00BF0BF4DC1E2FAF81BB27ED81F0E0AE0F15
:1019DE00BF1FECDC0E2FAE81BB27EC81F0E0AE1BFF
:1019EE00BF0BF9DC3E2FAE81BB27EC81F0E0AE0FD2
:1019FE00BF1FF1DC2E2F1A933A930A93A32F8FDD7C
:101A0E001A932A930A93A22F8ADD0E94F212289625
:101A1E000895AA930E94E912A985A03818F4A88502
:101A2E00A03408F04FC050916801E52F5150E030BE
:101A3E0009F448C0EF81E03009F444C0EF81E15071
:101A4E00EF83EF5F0E2FF0E0A5E0B0E0AE1BBF0B13
:101A5E00FD010E9440120E9445129F0110E0AE81CE
:101A6E00A03459F40E944A101A93A02FA1DF0E94AD
:101A7E004A100A93A12F9CDF0FC00E944A101A939E
:101A8E000A93EA85F0E0FA93EA93E0E0F0E0FA9345
:101A9E00EA93A0E0B0E039DE1F5F33231AF4E12FA2
:101AAE00F0E008C00150A12FBB27E02FF0E0AE1BE5
:101ABE00BF0BFD01EE0FFF1F31962E0F3F1F0117BB
:101ACE0070F6B3CF0E94F0122A960895AA93EA8177
:101ADE00EA93EA81EA93EA81EA93AFE89ADF0C94FB
:101AEE00B60E0E94B6127B816A81F981E88177FB7E
:101AFE00770F67FD7160972F9E5781F078F09831C0
:101B0E0090F4AA27BB27882708948795B795A795A1
:101B1E009A95D1F7EA23FB23682305C0E89477272B
:101B2E00EE27FF2766276F77769508F4606877F9BA
:101B3E00A991B99189919991EA17FB0768077907DD
:101B4E0097FB08950E944F100E94780D0E94B112CB
:101B5E0021F40E94A7120C94D50EDEF70E94A71254
:101B6E00A0E0B0E080E89FE30E941A1117C10E9426
:101B7E00B61224971A9310E00E945410E3E8F9EF7E
:101B8E0062E27EE30E9471110E945910DBDF0E9417
:101B9E0054100E94BB120E941A110E945910E0E0CC
:101BAE00F0E060E07FE30E94041209F008F409C03F
:101BBE000E945E10A0E0B0E080E09FE30E94631000
:101BCE0011E00E945410E0E0F0E060E87EE30E9435
:101BDE00041209F008F408C00E945410E0E0F0E08E
:101BEE0060E07FE30E946310103041F00E945E10AF
:101BFE000E947B10ED83FE836F8378870E945E10B8
:101C0E000E9454100E947111E983FA836B837C83C6
:101C1E00A1EBB4EC86E292E40E947111DF01CB01DC
:101C2E00EDE1F5EE6DE272E40E94BB120E941A1114
:101C3E000E946A10ACE4B3E584E091E40E942111A5
:101C4E000E9454100E9471117F936F93FF93EF9334
:101C5E00E981FA816B817C81A1E1BDEE8EED9FE37E
:101C6E000E9421110E946A10AEE5BBE788EA9FE34D
:101C7E000E942111AF91BF918F919F910E94BF1130
:101C8E001881299608950E944F10EBEDFFE069EC44
:101C9E007FE30E941A11DF01CB0169DF7FC0BA9387
:101CAE00AA93B981A881109631F0FC81EB816A81EB
:101CBE0061931197E9F7EB81FC8125960895AA931C
:101CCE00E881F0E0E45CF74FA491E9810E943012C4
:101CDE0022960895AA931A93E981E73011F0EA301B
:101CEE0019F41091600109C0E93019F410916101E5
:101CFE0004C0E830A1F410917001E0916101E03070
:101D0E0049F0103019F0EFEF188129C0EA81E09503
:101D1E00188125C0103019F4E0E0188120C0EA8146
:101D2E0018811DC0BA93AA93EA81E13021F4E881AB
:101D3E00F981E49114C0E23029F4A881B9810E949E
:101D4E00C8120DC0E33041F4A881B981E091790148
:101D5E00F0917A01099503C0A881B981EC9123967F
:101D6E000895AA93EB81E03029F4E881A981BA8124
:101D7E00EC9314C0E23031F4E881A981BA810E945B
:101D8E00D4120CC0E33051F4E981FA81FA93EA934C
:101D9E00AA81E0917B01F0917C010995249608952A
:101DAE00E0E0E0937D01E0937E01E0938301E09318
:101DBE0084010895E8E0F0E0E0938501F093860158
:101DCE00E0E0E0938701E09388010895E491E095C7
:101DDE00E8BBE0918301A1E00E943012EBBB0895B5
:101DEE00ED91FD913196FE93EE930895E09385016A
:101DFE00F09386010895E0938701F093880108958A
:101E0E00EFE3EA93EFE1EA930895E1E0E0936801EE
:101E1E00EFEFE09369010895E0919101F091920145
:101E2E00A6E0B0E00E9477120E944A120E94E710CC
:101E3E00DF01CB010895A0E0B0E088EC91E40E94B0
:101E4E0071110895A9E8B1E00E94B0100E949D1290
:101E5E000895ADE8B1E00E94B0100E949D12D0CF5F
:101E6E00E0918901E15CEA93A0918D01EFE1EA1B1B
:101E7E00AE2F0C94960AE0919301F0919401A6E096
:101E8E00B0E00E9477120E944A120E94E710DF0112
:101E9E00CB010895A0E0B0E080EA91E40E947111B8
:101EAE000895E0919501F0919601A6E0B0E00E94B0
:101EBE0077120E944A120E94E710DF01CB010895AB
:101ECE00A0E0B0E080E791E40E947111089591982E
:101EDE00EFEFE4BBE881E5BB0E9480060C9484061C
:101EEE00E695E695E695AE2F0C94BF060E94E306A6
:101EFE000C94CE06EA0FFB1FEE83FF830895EC854C
:101F0E00EA93EF81F8853196EF83F8873197FA934C
:101F1E00EA93A0E00C94B80EEC85EA93EF81F88575
:101F2E003196EF83F8873197089566277727DF017B
:101F3E00CB010C94990E5A93AA850C94710E0A93A8
:101F4E000395E889EA935A9308950A930395A8890D
:101F5E000E94F506E42308955E2FEC85EA93AF8187
:101F6E00B885882799270E94990E1E2E08950A93E8
:101F7E000395E889EA93EE85EA93E985FA85319629
:101F8E00E987FA873197D1CFBA93AA93A881B981FD
:101F9E000E94E5120895ED83FE830895AE81AF5F32
:101FAE00AE83A150E0916801AE1708953A93AA85C9
:101FBE000C946E0AA985BA85EA0FFB1FE987FA878A
:101FCE000895E985FA85EA1BFB0BE987FA870895E0
:101FDE00F0E0EA0FFB1F8F01A989BB270895F0E0FF
:101FEE00AE1BBF0B9D01A989BB270895F0E0EA0F38
:101FFE00FB1FAF01E885E178E1380895EA1BFB0B82
:10200E000F01DF01EB85FC85AE17BF070895E9854B
:10201E00FA85E015F10508950A93A22F0C94070A8C
:10202E000A93A22FA2500E94AB07AE2FEE81EA17A1
:10203E000895EB85FC85AE17BF070895E985FA85EF
:10204E00EA17FB0708950A93A42F0E94070AAF818F
:10205E00A23008950A93A42FAE5F0E94AB07AE2F55
:10206E00EE81EA170895EA93A22F0E94AB07AE2FD6
:10207E00EE81EA170895EA93A42F0E94AB07AE2FC4
:10208E00EE81EA170895E985EA93E985EA930895C2
:10209E000E94B6120E94AC120895AD81BE818F814E
:1020AE0098850895ED83FE836F837887F6CFED8153
:1020BE00FE816F81788508950E941A11ED83FE834B
:1020CE006F8378870895A981BA818B819C810E9444
:1020DE0071110895109639F080ED97E00197F1F7A0
:1020EE00A8951197C9F7089530976040704009F090
:1020FE0070580895552342F4503811F4E0FF04C08F
:10210E003196691F791F6BF050E8572711F45F93D2
:10211E00CFC05F3F31F0660F000C57956795752F56
:10212E0008955F9300200AF0CFC0C8C050E8192E62
:10213E001522880F991F9527550F879550E8072E62
:10214E000522660F771F7527550F679508956894BA
:10215E0001C0E8945F93F2DF703818F07F3F08F407
:10216E00A7C056E1571BAAF4519558300EF45930BA
:10217E0030F0EFEFFFEF6FEF7FE777F91AC07727B9
:10218E005523B9F0EE0FFF1F661F771F5A95D1F733
:10219E0010C07727583028F0EF2FF62F672F5850A2
:1021AE00F9CF552331F076956795F795E7955A95C2
:1021BE00D1F700200AF445D15F910895689401C0CB
:1021CE00E894309760407040B1F0002426F07723F9
:1021DE0012F4009436D1172E7EE1112032F07A954A
:1021EE00EE0FFF1F661F111CF9CFEF2FF62F612D7B
:1021FE005F938ADF5F9108954F93AF01FD01DA017E
:10220E00AB01BC01CA01402D012C142E4F91089533
:10221E00EA0FFB1F681F0895E095F0956095EF5F3C
:10222E00FF4F6F4F08955F9381DF903871F150E843
:10223E00152604C05F937ADF903839F1703821F19A
:10224E00572F591B2BF112F4D7DFFACF583118F054
:10225E00AA27BB278827583028F0AB2FB82F8827FE
:10226E005850F9CF552329F08695B795A7955A95CD
:10227E00D9F7502D512572F0CBDF38F46795F795CD
:10228E00E795739513F420C0B7DF3EDF5F91089595
:10229E00D8F7FBCFEA1BFB0B680B51F010F4009440
:1022AE00BBDF662392F3EE0FFF1F661F7A95CBF707
:1022BE00EE27FF27662777275F910895EFEFFFEF51
:1022CE006FE77FEF5F910895EFEFFFEF6FE77FE727
:1022DE005F9108955F932ADF703851F3903841F380
:1022EE0001240894791F23F41CF300203AF3ECCF59
:1022FE000F921F932F933F934F93112722279927C6
:10230E00689FA0018F9F302D410D591F6B9F300D7F
:10231E00411D591F8E9F27D0BF9F25D06A9F23D066
:10232E00BE9F1DD0AF9F1BD0AE9F110D291F391F11
:10233E00491F591FE32FF42F652F522F4F913F91B5
:10234E002F911F910F9066232AF0550FEE1FFF1F3E
:10235E00661F02C073954BF2CDDE5F910895100D8E
:10236E00211D391F02C0200D311D491F591F08950F
:10237E005F93DCDE703821F411200AF49FCFA4CFD6
:10238E00903809F495CF01240894970B1BF4D4F3DD
:10239E000020F3CF792F1F932F933F934F93112448
:1023AE001127222733274427552790E2AE17BF0760
:1023BE008607410730F0AE1BBF0B860B410B08940E
:1023CE0001C08894551F221F331F111CAA1FBB1F4B
:1023DE00881F441F9A9551F7F901612D4F913F9136
:1023EE002F911F91662332F0550FEE1FFF1F661FB0
:1023FE007A9543F27FDE5F91089599239AF07723C1
:10240E0042F0971748F029F4AE17BF07860720F061
:10241E0031F0989488940895989408940895189497
:10242E00889408957723C2F7971798F3A9F7EA17B8
:10243E00FB07680788F399F3ECCFF195E195F0402F
:10244E000895F09560957095E195FF4F6F4F7F4F12
:10245E000895EE230E2EEA2F19F0EE0F0A94E9F7E7
:10246E000895EE230E2EEA2F19F0E6950A94E9F759
:10247E000895EE0FFF1FEE0FFF1F0895F595E795D8
:10248E00F595E79508956F2F660F660B762F0895D5
:10249E00FA9FF02DEB9FF00DEA9FE02DF10D0895C0
:1024AE007A9F702D6B9F700DF89F700DE99F700DC8
:1024BE006A9F602D710DFB9F600D711DE89F600D71
:1024CE00711D8827FA9FF02D610D781FEB9FF00D7F
:1024DE00611D781FEA9FE02DF10D681F781F08958A
:1024EE000ED0D6DF0EF4A9DF0895E894F7FF02C0F0
:1024FE00A4DF6894EA23FB230EF49FDF0895E8948B
:10250E00F7FF02C09ADF6894B7FF06C0A095B0959A
:10251E00119600F8039400FA0895ED91FC9111972D
:10252E000895ED91FD916D917D910895ED93FD933B
:10253E006D937C9308957E936E93FE93EE93089520
:10254E00E881F9816A817B810895A881B9818A81A8
:10255E009B810895E883F9836A837B8308959A9318
:10256E008A93BA93AA930895182E862F612D192E49
:10257E00972F712D1B2EBF2FF12D1A2EAE2FE12D61
:10258E000895E199FECFFF93FFB7F894AEBBBFBBA2
:10259E00E09AEDB3FFBFFF910895E19B02C0A895AD
:1025AE00FCCF9FB7F894AEBBBFBBE09A8DB3E817D4
:1025BE0019F0EDBBE29AE19A9FBF089500240A1626
:1025CE000B0608955A934A933A932A931A930A93B1
:1025DE0008955D814C813B812A811981088108957E
:00000001FF
