:020000000C945E
:100002000D010C9400000C943A010C9400000C9425
:1000120000000C9400000C9400000C9400000C945E
:1000220000000C9400000C9400000C9400000C944E
:1000320000000C9400000C9400000C9400000C943E
:1000420000000C9400000C9400000C9400000C942E
:100052000000303132333435363738394142434487
:1000620045465175657374696F6E203400004172A4
:100072006D616E20526961736900393633383238E6
:10008200330057656C636F6D6520746F207468650B
:10009200206F6E6C696E65206C616220636C6173A7
:1000A2007365732064756520746F20436F726F6E81
:1000B2006120646973656173652E00202020202011
:1000C2002020202020202020202020005175657330
:1000D20074696F6E20333A00456E746572206E75D6
:1000E2006D62657220666F72535045454428302D0B
:1000F2003530293A20005350454544204545206675
:100102006F72200053657420737563636573736641
:10011200756C6C7900456E746572206E756D6265E2
:100122007220666F7254494D4528302D3939732932
:100132003A200054494D4520454520666F72200003
:10014200456E746572206E756D62657220666F729F
:1001520057454947485428302D393946293A200015
:1001620057454947485420454520666F722000454F
:100172006E746572206E756D62657220666F725460
:10018200454D502832302D383043293A200054450D
:100192004D5020454520666F7220000080C010003F
:1001A200C50254000B00600164000C006B0170007A
:1001B2003900770184000100B0017B001100B10118
:1001C200BD000C00C201CE001E00CE01DA000E00FE
:1001D200EC01F8001100FA0106011E000B021701E2
:1001E2000D002902350111003602060120004702E6
:1001F20042010F00670262011100760206011F0030
:10020200870271010D00A60290011100B3020601DE
:100212000200D5029E010000F894EE27ECBBF1E04B
:10022200FBBFEBBFE5BF8DE0A2E0BB27ED938A9554
:10023200E9F780E094E0A0E6ED930197E9F7E0EAC0
:10024200F1E085919591009761F0A591B5910590A6
:100252001590BF01F00105900D920197E1F7FB01A6
:10026200F0CFEFE5EDBFE4E0EEBFC0E6D1E00C94E5
:100272005F010A921A92FA926A937A938A939A93F4
:10028200AA93BA93EA93FA93EFB7EA93E1E0E4BB55
:10029200E5BB0E947B037DD00E947B03E0E0E5BBCF
:1002A200E991EFBFF991E991B991A9919991899158
:1002B20079916991F9901990099018954DD151D180
:1002C200A0E10E942C030DD01DD0BDD0D6D00E943B
:1002D2008003A0E6B1E00E9487030E94E902C9D030
:1002E200FFCF0E948003ABE6B1E00E940A030E94A6
:1002F2008D03ACE7B0E00E941903A8E9B8E00E94C0
:10030200E40308952297E0E0E883E9830E94F3037F
:1003120007E711E020EB31E041EB51E059D10E94B7
:100322008D03DA010E940A0353D1E0E0EE83EF83EA
:10033200D8010E945A03AE81BF81AE17BF0728F5CC
:100342000E9480033A932A93E885F985E00FF11F12
:10035200FA93EA93A0E10E946603D9015AD1EE8191
:10036200FF81309721F4AEEEB2E00E94E403ACE8E4
:10037200B0E00E94E4030E948D03DA014AD1EE81CB
:10038200FF813196EE83FF83D3CF0E94FA03289632
:1003920008951A930A930E947B030E949203E9F341
:1003A2000E949203E9F70E949903E9F70E949903D8
:1003B200D1F3EFE10E94A20311F010E013C0EFE2CB
:1003C2000E94A20311F011E00DC0EFE40E94A2030B
:1003D20011F012E007C0EFE80E94A20311F013E04F
:1003E20001C0E7CFE02FF0E0E130A0E0FA0741F4EE
:1003F2000E94A803AC91F8D00E94A803EC9120C0FF
:10040200E230A0E0FA0739F40E94B103A1810E9410
:10041200BA03E18115C0E430A0E0FA0739F40E9482
:10042200B103A2810E94BA03E2810AC0E830A0E0CF
:10043200FA0741F40E94B103A3810E94BA03E38147
:10044200E093C40286C01A930A9300E010E00E946F
:100452008003A2ECB1E00E9487030E948003E3E0E4
:10046200F0E0E017F10721F094DF0F5F1F4FF7CFA5
:1004720070C00E947B03789408951A930A930E9495
:100482008003AEECB1E00E94BD03163348F40A3398
:1004920038F4103328F0153311F4003309F405C091
:1004A2000E948003ACEEB1E004C00E948003AAEF78
:1004B200B1E0AFD00E94CB030E94D103ABE0B2E027
:1004C2000E94BD031A3310F40A3328F00E948003FD
:1004D200A9E2B2E004C00E948003A6E3B2E099D090
:1004E2000E94CB030E94D103A7E4B2E00E94BD03A5
:1004F2001A3310F40A3328F00E948003A7E6B2E010
:1005020004C00E948003A6E7B2E083D00E94CB031E
:100512000E94D103A7E8B2E00E94BD03193348F458
:100522000A3338F4123328F0183311F4003309F483
:1005320005C00E948003A6EAB2E004C00E948003C4
:10054200A3EBB2E066D00E94CB03A8E7B5E00E941D
:10055200E403099119910895EFEFEABBE0E0EBBBE8
:100562000895EBB7E068EBBFECE0E5BFE0E0E4BF85
:10057200E0E8EABF0895AA93EBB3EF70AE2FE881EB
:10058200E07FEA2BEBBB8DE08A95F1F7DA9A8DE0FA
:100592008A95F1F7DA988DE08A95F1F788C0AA93E7
:1005A200A881E9DFE881E295E883A881E4DF85E8B4
:1005B2008A95F1F77CC0AA93E881F0E0EB52FD4FF7
:1005C200E081A981AE0FEBDF598048802296089521
:1005D200A2E00E94D603ACE0E2DFA1E00E94D603D3
:1005E200E0E04E2E5E2E0895AA93A881AA3011F063
:1005F200571448F0E0E0EA934394A42DDCDFA8818D
:10060200AA3009F454C05394D89AA881C8DFD89864
:100612004EC0BA93AA931A93A981BA81ED91A98384
:10062200BA831E2FE03019F0A12FDEDFF5CF10C004
:10063200BA93AA931A93E981FA813196E983FA83EC
:100642003197E4911E2FE03019F0A12FCDDFF3CFC7
:10065200188123960895AA93EAB3E06FEABBD29A6F
:10066200D09AD19ADA98D898D9987880E881E058C7
:10067200E093D702E881E054E093D802A4E1B0E02D
:100682000E94E4030E94DC030E94DC030E94DC035C
:10069200A0E271DF88EC90E00197F1F7A8E27FDF3A
:1006A200A4E07DDFA5E87BDFA6E079DF91DF21967C
:1006B2000895BA93AA93A991B991EE27FF276D9154
:1006C200662311F03196FBCF0895AA937991E991AF
:1006D200F991A991B991CD01772351F07A95619160
:1006E2006D936623C9F7772319F07A956D93FBCF43
:1006F200FC010895E0EFE7BBEFEFE8BB08950E942D
:10070200E902E0E0EA93A0E00C94DC020E940A0312
:10071200A4EFB1E00C94E403E0E0EA93A1E00C94CE
:10072200DC02EFEFE8BBE6B3EF700E2F0030089566
:10073200A9E1B0E00E94E403E6B3EF700E2F0030AF
:100742000895E8BBE6B3EF700E2F00300895E12F55
:10075200A5ECB2E0F0E00E94EE03AE0FBF1F0895D9
:10076200E12FA5ECB2E0F0E00E94EE03EA0FFB1FDE
:1007720008950E94F502F4CF0E940A030E94CA0162
:100782001091C4020E94CA010091C402A2E3B0E027
:100792000C94E403A12F0E94F502A02F0C94F50201
:1007A200A8E7B5E00E94E403AACF0E94D002A3E02A
:1007B200B0E00C94E403A0E30E94BC0288EC90E059
:1007C2000197F1F70895109639F080ED97E00197BF
:1007D200F1F7A8951197C9F70895EE0FFF1FEE0FD5
:1007E200FF1F08955A934A933A932A931A930A93AE
:1007F20008955D814C813B812A8119810881089588
:00000001FF
