:0E0000000C9434040C9400000C9400000C943A
:10000E0000000C9400000C9400000C9400000C9462
:10001E0000000C9400000C9400000C9400000C9452
:10002E0000000C9400000C9400000C9400000C9442
:10003E0000000C9400000C9400000C9400000C9432
:10004E0000000C9400000507206000000000000076
:10005E00005F00000007000700147F147F14242A9D
:10006E007F2A122313086462364955225000050375
:10007E000000001C2241000041221C00082A1C2AFC
:10008E000808083E08080050300000080808080854
:10009E00003030000020100804023E5149453E0059
:1000AE00427F400042615149462141454B3118146F
:1000BE00127F1027454545393C4A4949300171099F
:1000CE0005033649494936064949291E0036360088
:1000DE0000005636000000081422411414141414A3
:1000EE0041221408000201510906324979413E7E2F
:1000FE001111117E7F494949363E414141227F41CE
:10010E0041221C7F494949417F090901013E414174
:10011E0051327F0808087F00417F41002040413F57
:10012E00017F081422417F404040407F0204027F3D
:10013E007F0408107F3E4141413E7F090909063E7A
:10014E004151215E7F09192946464949493101012C
:10015E007F01013F4040403F1F2040201F7F20185D
:10016E00207F631408146303047804036151494526
:10017E004300007F4141020408102041417F0000EE
:10018E0004020102044040404040000102040020ED
:10019E00545454787F4844443838444444203844B6
:1001AE0044487F3854545418087E090102081454E8
:1001BE00543C7F0804047800447D40002040443DB8
:1001CE0000007F10284400417F40007C0418047812
:1001DE007C0804047838444444387C141414080809
:1001EE001414187C7C080404084854545420043F0A
:1001FE004440203C4040207C1C2040201C3C403091
:10020E00403C44281028440C5050503C4464544CFC
:10021E0044000836410000007F000000413608000F
:10022E0002010204027F4141417F80004000FFFF36
:10023E00FFFFFFFFFFFFFFFFFFFFFFFFFFFFFFFFC0
:10024E00FFFFFFFFFFFFFFFFFFFFFFFFFFFFFFFFB0
:10025E00FFFFFFFFFFFFFFFFFFFFFFFFFFFFFFFFA0
:10026E00FFFFFFFFFFFFFFFFFFFFFFFFFFFFFFFF90
:10027E00FFFFFFFFFFFFFFFFFFFFFFFFFFFFFFFF80
:10028E00FFFFFFFFFFFFFFFFFFFFFFFFFFFFFFFF70
:10029E00FFFFFFFFFFFFFFFFFFFFFFFFFFFFFFFF60
:1002AE00FFFFFFFFFFFFFFFFFFFFFFFFFFFFFFFF50
:1002BE00FFFFFFFFFFFFFFFFFFFFFFFFFFFFFFFF40
:1002CE00FFFFFFFFFFFFFFFFFFFFFFFFFFFFFFFF30
:1002DE00FFFFFFFFFFFFFFFFFFFFFFFFFFFFFFFF20
:1002EE00FFFFFFFFFFFFFFFFFFFFFFFFFFFFFFFF10
:1002FE00FFFFFFFFFFFFFFFFFFFFFFFFFFFFFFFF00
:10030E00FFFFFFFFFFFFFFFFFFFFFFFFFFFFFFFFEF
:10031E00FFFFFFFFFFFFFFFFFFFFFFFFFFFFFFFFDF
:10032E00FFFFFFFFFFFFFFFFFFFFFFFFFFFFFFFFCF
:10033E00FFFFFFFFFFFFFFFFFFFFFFFFFFFFFFFFBF
:10034E00FFFFFFFFFFFFFFFFFFFFFFFFFFFFFFFFAF
:10035E00FFFFFFFFFFFFFFFFFFFFFFFFFFFFFFFF9F
:10036E00FFFFFFFFFFFFFFFFFFFFFFFFFFFFFFFF8F
:10037E00FFFFFFFFFFFFFFFFFFFFFFFFFFFFFFFF7F
:10038E00FFFFFFFFFFFFFFFFFFFFFFFFFFFFFFFF6F
:10039E00FFFFFFFFFFFFFFFFFFFFFFFFFFFFFFFF5F
:1003AE00FFFFFFFFFFFFFFFFFFFFFFFFFFFFFFFF4F
:1003BE00FFFFFFFFFFFFFFFFFFFFFFFFFFFFFFFF3F
:1003CE00FFFFFFFFFFFFFFFFFFFFFFFFFFFFFFFF2F
:1003DE00FFFFFFFFFFFFFFFFFFFFFFFFFFFFFFFF1F
:1003EE00FFFFFFFFFFFFFFFFFF3F1F0F0707231159
:1003FE00000000000183870F1F1F3FFFFFFFFFFF5D
:10040E00FFFFFFFFFFFFFFFFFFFFFFFFFFFFFFFFEE
:10041E00FFFFFFFFFFFFFFFFFFFFFFFFFFFFFFFFDE
:10042E00FFFFFFFFFFFFFFFFFFFFFFFFFFFFFFFFCE
:10043E00FFFFFFFFFFFFFFFFFFFFFFFFFFFFFFFFBE
:10044E00FFFFFFFFFFFFFFFFFFFFFFFFFFFFFFFFAE
:10045E00FFFFFFFFFFFFFFFFFFFFFFFFFFFFFFFF9E
:10046E00FFFFFFFFFFFFFFFFFFFFFCF8F0E0E0C024
:10047E0080800000684D0080C0C0E0E0F0FBFFFF10
:10048E00FFFFFFFFFFFFFFFFFFFFFFFFFFFFFFFF6E
:10049E00FFFFFFFFFFFFFFFFFFFFFFFFFFFFFFFF5E
:1004AE00FFFFFFFFFFFFFFFFFFFFFFFFFFFFFFFF4E
:1004BE00FFFFFFFFFFFFFFFFFFFFFFFFFFFFFFFF3E
:1004CE00FFFFFFFFFFFFFFFFFFFFFFFFFFFFFFFF2E
:1004DE00FFFFFFFFFFFFFFFFFFFFFFFFFFFFFFFF1E
:1004EE00FFFFFFFFFFFFFFFFFFFFFFFFFFFFFFFF0E
:1004FE00FFFFFEFEFFFFFFFFFFFFFFFFFFFFFFFF00
:10050E00FFFFFFFFFFFFFFFFFFFFFFFFFFFFFFFFED
:10051E00FFFFFFFFFFFFFFFFFFFFFFFFFFFFFFFFDD
:10052E00FFFFFFFFFFFFFFFFFFFFFFFFFFFFFFFFCD
:10053E00FFFFFFFFFFFFFFFFFFFFFFFFFFFFFFFFBD
:10054E00FFFFFFFFFFFFFFFFFFFFFFFFFFFFFFFFAD
:10055E00FFFFFFFFFFFFFFFFFFFFFFFFFFFFFFFF9D
:10056E00FFFFFFFFFFFFFFFFFFFFFFFFFFFFFFFF8D
:10057E00FFFFFFFFFFFFFFFFFFFFFFFFFFFFFFFF7D
:10058E00FFFFFFFFFFFFFFFFFFFFFFFFFFFFFFFF6D
:10059E00FFFFFFFFFFFFFFFFFFFFFFFFFFFFFFFF5D
:1005AE00FFFFFFFFFFFFFFFFFFFFFFFFFFFFFFFF4D
:1005BE00FFFFFFFFFFFFFFFFFFFFFFFFFFFFFFFF3D
:1005CE00FFFFFFFFFFFFFFFFFFFFFFFFFFFFFFFF2D
:1005DE00FFFFFFFFFFFFFFFFFFFFFFFFFFFFFFFF1D
:1005EE00FFFFFFFFFFFFFFFFFFFFFFFFFFFFFFFF0D
:1005FE00FFFFFFFFFFFFFFFFFFFFFFFFFFFFFFFFFD
:10060E00FFFFFFFFFFFFFFFFFFFFFFFFFFFFFFFFEC
:10061E00FFFFFFFFFFFFFFFFFFFFFFFFFFFFFFFFDC
:10062E00FFFFFFFFFFFFFFFFFFFFFFFFFFFF0000CA
:10063E00FC00FE00130013001300FE00FC0000007F
:10064E00FF00FF0039006900CF0086000000FC00AB
:10065E00FE00130013001300FE00FC000000FF005C
:10066E00FF0039006900CF00860000000000FE0088
:10067E00130013001300FE00FC000000FF00FF003B
:10068E0039006900CF00860000000000FC00130056
:10069E0013001300FE00FC000000FF00FF003900F5
:1006AE006900CF00860000000000FC00FE00130071
:1006BE001300FE00FC000000FF00FF00390069007F
:1006CE00CF00860000000000FC00FE0013001300A7
:1006DE00FE00FC000000FF00FF0039006900CF00A3
:1006EE00860000000000FC00FE0013001300FE0058
:1006FE00FC000000FF00FF0039006900CF008600FB
:10070E0000000000FC00FE00130013001300FC00AC
:10071E000000FF00FF0039006900CF0086000000D6
:10072E000000FC00FE00130013001300FE0000008A
:10073E00FF00FF0039006900CF00860000000000B6
:10074E00FC00FE00130013001300FE00FC00FF006F
:10075E00FF0039006900CF00860000000000FC0099
:10076E00FE00130013001300FE00FC000000FF004B
:10077E0039006900CF00860000000000FC00FE007A
:10078E00130013001300FE00FC000000FF003900F0
:10079E006900CF00860000000000FC00FE00130080
:1007AE0013001300FE00FC000000FF00FF006900B4
:1007BE00CF00860000000000FC00FE0013001300B6
:1007CE001300FE00FC000000FF00FF003900CF0008
:1007DE00860000000000FC00FE0013001300130052
:1007EE00FE00FC000000FF00FF00390069008600DB
:1007FE0000000000FC00FE00130013001300FE00BA
:10080E00FC000000FF00FF0039006900CF0000006F
:10081E000000FC00FE00130013001300FE00FC009D
:10082E000000FF00FF0039006900CF0086000001C4
:10083E0003070F1F3F7FFF000000000000000000B5
:10084E0001002D4E414E00494E46000008000400A6
:10085E004608010084014E080000F894EE27ECBB18
:10086E00F1E0FBBFEBBFE5BF8DE0A2E0BB27ED9350
:10087E008A95E9F780E094E0A0E6ED930197E9F719
:10088E00EAE5F8E085919591009761F0A591B59113
:10089E0005901590BF01F00105900D920197E1F7BB
:1008AE00FB01F0CFEFE5EDBFE4E0EEBFC0E6D1E037
:1008BE000C946B04E0E0EABBEBBBE7BBE8BBE4BB2C
:1008CE00E5BBE1BBE2BB08952697F4DFE4E5F0E07B
:1008DE00E883F983E0E0EA83EB83EC83ED83DE01CA
:1008EE008FD0E0E0EA93EA93E8E3F2E0FA93EA933A
:1008FE00A0E00E94F8072696FFCF0000909A000015
:10090E00089590989498959808951A93F6DF13B3D6
:10091E009098E12F19910895AA931A93E0E0E4BB01
:10092E00919A9298E981EF5F1E2F10FF02C0949A60
:10093E0001C0949811FF02C0959A01C09598E5DF09
:10094E00E078E9F718810C944B08AA93A981E4DFAB
:10095E000E94B3080C944B08E0918201EA93E09157
:10096E008101EF73E064AE2FF0DFE0918201EA9334
:10097E00E0918301E86BAE2FE8DF0895AA93E98139
:10098E00E0938101E295EF70E695E695E0938201A2
:10099E00E881E0938301E0DF0C944B08A091810184
:1009AE00AF5FA0938101A03818F0E0E0E0938101E1
:1009BE00E0918101EF7331F4E0918101EA93A0910E
:1009CE008301DCDF0895AA93A0918201A5DF929A9C
:1009DE000E94B30821960895A09182019DDFE0E068
:1009EE00E4BB919A929A91DF0895AA93E981EA93D2
:1009FE00E9810E94BC08F0DFAFDFEEDF0C944B08FC
:100A0E00BA93AA931A93889A899A8A9A8B9A939AE6
:100A1E008C9A8D9A76DF9398A4E6B0E00E941A091C
:100A2E00939A10E0123040F41A93AFE38EDF1A93CC
:100A3E001395A0EC8ADFF6CFE1E0E0936001E0E0F1
:100A4E00E0936101E981FA813097A9F0A981BA8119
:100A5E000E945C09E0936401F093650112960E9476
:100A6E005C09E0937901F0937A01A981BA81149619
:100A7E000E945C090AC0E0E0F0E0E0936401F093AC
:100A8E006501E0937901F0937A01E0937B01F09395
:100A9E007C01E1E0E0936601E0936701E093680179
:100AAE00EFEFE0936901E1E0E0937001E1E7F1E03F
:100ABE00FA93EA93EFEFEA93A8E0B0E00E943208CF
:100ACE0004D0E1E018810C9492080E94830900E0A2
:100ADE0030E0E0916101E03009F00FEF383078F44A
:100AEE00E0E0EA93A32F3F5F49DF10E0A12F1F5FE5
:100AFE00A03820F4A02F0E94C208F8CFEFCFE0E07C
:100B0E00EA93A0E03BDFE0E0EA93A0E098D20E94F7
:100B1E008A090C94B108AA931A93ED81EA93AD81D8
:100B2E0064DF1E2F19DFE981E73011F0E83039F468
:100B3E00EB81EA93AA810E944D08EB8308C0E33053
:100B4E0021F4EB81E095EB8302C0E03021F4EA81E1
:100B5E00E0951E2302C0E23029F4EA81AB81EA233C
:100B6E001E2B0EC0E13029F4EA81AB81EA231E2749
:100B7E0007C0E43029F4EA81E095AB81EA2B1E230D
:100B8E00A12F0E94C208188126960895AA93239732
:100B9E000E948109A889A03848F4AF85A03430F4AA
:100BAE00AE85A03019F0AD85A03009F4C8C1EE8530
:100BBE00E887A889BB27EE85F0E0AE0FBF1FA138EE
:100BCE00E0E0BE0720F0A889E0E8EA1BEE872D855D
:100BDE00AF85BB27ED85F0E0AE0FBF1FA134E0E07F
:100BEE00BE0720F0AF85E0E4EA1BED87A985A630AD
:100BFE0009F05BC0EC85E13009F4A1C1E33039F4B2
:100C0E00E0917B01F0917C01309709F498C1088541
:100C1E00ED85E695E695E6953E2FE22FE77019F401
:100C2E00AD852A17E9F0A02FBB27E32FF0E00E9435
:100C3E003409AA85BB850E94C60826952695269559
:100C4E00532F5F935F5FE22FAF91EA1748F0102F9B
:100C5E00E12F1150E03019F00E94CB08F9CFF1CFFF
:100C6E00AE850A1711F1EE85AA85BB85F0E00E94CC
:100C7E00C608ED85E77009F03F5F20E02F932F5FE8
:100C8E00E32FAF91AE1788F41E851F931F5FE02FE1
:100C9E00AF91AE1718F40E94CB08F7CFEE85AE8158
:100CAE00BF81F0E00E94C608E9CFEF85E7703E2FC6
:100CBE00ED85E03009F443C1EA85FB85EE83FF83C1
:100CCE0010E00889303009F065C0AD85A83008F411
:100CDE005CC0E985E03011F0E33009F402C0E73082
:100CEE0009F402C0E83009F402C0E63009F402C08B
:100CFE00E93009F402C0EA3021F40A93E8890E942F
:100D0E00BC081F931F5FEE85AF91AE17B8F5A9858E
:100D1E00A63061F461DE20DE0E94D808FA93EA93D1
:100D2E005BDEAE2F0E94940839DE27C0E985E930DC
:100D3E0011F450E00EC0EA3011F45FEF0AC00E94C9
:100D4E00D8080E94E1085E2FE985E73011F0E830FF
:100D5E0021F40E94E7085E2F06C0E33011F450958F
:100D6E0002C0E03021F4A52F0E94C20806C00E94E6
:100D7E00EB08EFEFEA93AD85CEDEC3CFEF85E85FEC
:100D8E00EF87ED85E850ED87D1C05D8520E0E0E08E
:100D9E00ED877AC0E32FAD85AE0FA93020F42D85F7
:100DAE00E0E0ED8703C0E8E0E31B2E2F3A93A22F7D
:100DBE000E9442084E2FE985E630F1F41F931F5F23
:100DCE00EE85AF91AE17B8F40E94F108AE2FE32F67
:100DDE000E942C090E94F808E32FA42F0E942C09D0
:100DEE00E095E1215E2B0E94D808FA93EA93A52F95
:100DFE000E949408E3CF2CC0E93011F450E003C0F8
:100E0E00EA30A9F45FEF0E94E708AE2FE32F0E94AD
:100E1E0024095E2F1F931F5FEE85AF91AE1730F43E
:100E2E000E94EB084A93A0E076DEF4CF11C01F9328
:100E3E001F5FEE85AF91AE1758F40E940309AE2FD7
:100E4E00E32F0E942409EA934A93AD8564DEEFCF27
:100E5E00ED85E03009F473C0AD85A83028F4ED853A
:100E6E00E21B5E2FE0E003C0532FED85E850ED87C7
:100E7E0010E0EF85E85FEF87E8E0E31B2E2F08898F
:100E8E00EA85FB85EE83FF83E52FF0E0E45CF74F08
:100E9E004491E985E630F1F41F931F5FEE85AF9123
:100EAE00AE17B8F40E94F108AE2FE22F0E9424096B
:100EBE000E94F808E22FA42F0E942409E095E12158
:100ECE005E2B0E94D808FA93EA93A52F0E949408ED
:100EDE00E3CF2CC0E93011F450E003C0EA30A9F49E
:100EEE005FEF0E94E708AE2FE22F0E942C095E2FC3
:100EFE001F931F5FEE85AF91AE1730F40E94EB0883
:100F0E004A93A0E008DEF4CF11C01F931F5FEE8559
:100F1E00AF91AE1758F40E940309AE2FE22F0E9434
:100F2E002C09EA934A93AD85F6DDEFCFE885AA85C5
:100F3E00BB85F0E0EA0FFB1FEA87FB87B9CE0E9464
:100F4E008809619608950E9410091CF0E0E0F0E017
:100F5E009BC0A881B981A038E0E0BE071CF0EFE786
:100F6E00F0E092C0E881F9818FC00E9410091CF058
:100F7E00E0E0F0E089C0A881B981A034E0E0BE07CE
:100F8E001CF0EFE3F0E080C0E881F9817DC0AA9308
:100F9E001A93AA81A03818F4A981A03430F0E0E0A9
:100FAE00F0E060E070E01881B6C0E981E7701E2FB6
:100FBE00E981E695E695E695E983103011F0EF5F4D
:100FCE00E983AA81BB2788279927E981FF2766270E
:100FDE0077270E943C09EC5FFF4F6F4F7F4F1881C0
:100FEE009AC0AA930E948309AC81A53000F5ED81C9
:100FFE00FE8105910E94170915910E9417092591EE
:10100E000E9417093591ED83FE83E885EA93E88502
:10101E00EA930A932A93E1E0EA93EA85FB85FA9331
:10102E00EA93AB85B3DD0A93A22FB1DF04C0E0E0F3
:10103E00F0E060E070E00E948A0929960895AA9374
:10104E00A981BB2780DFE0936201A881BB278DDFDA
:10105E00E093630119C0BA93AA93B981A88110963F
:10106E0031F0FC81EB816A8161931197E9F7EB8195
:10107E00FC8125960895AA93E881F0E0E45CF74F91
:10108E00A491E9810E94240922960895AA931A93A5
:10109E00E981E73011F0EA3019F41091600109C0CE
:1010AE00E93019F41091610104C0E830A1F41091F7
:1010BE007001E0916101E03049F0103019F0EFEF6E
:1010CE00188129C0EA81E095188125C0103019F4E5
:1010DE00E0E0188120C0EA8118811DC0BA93AA935E
:1010EE00EA81E13021F4E881F981E49114C0E23023
:1010FE0029F4A881B9810E9460090DC0E33041F442
:10110E00A881B981E0917901F0917A01099503C026
:10111E00A881B981EC9123960895AA93EB81E030D2
:10112E0029F4E881A981BA81EC9314C0E23031F43C
:10113E00E881A981BA810E946C090CC0E33051F498
:10114E00E981FA81FA93EA93AA81E0917B01F09109
:10115E007C010995249608959198EFEFE4BBE88100
:10116E00E5BB0E9484040C948804E695E695E6950A
:10117E00AE2F0C94C5040E94EA040C94D504EA0F19
:10118E00FB1FEE83FF830895EC85EA93EF81F885CC
:10119E003196EF83F8873197FA93EA93A0E00C9497
:1011AE009408EC85EA93EF81F8853196EF83F88702
:1011BE003197089566277727DF01CB010C947508C8
:1011CE005A93AA850C944D080A930395E889EA93DD
:1011DE005A9308950A930395A8890E94FC04E42368
:1011EE0008955E2FEC85EA93AF81B88588279927FD
:1011FE000E9475081E2E08950A930395E889EA93B6
:10120E00EE85EA93E985FA853196E987FA87319773
:10121E00D1CFBA93AA93A881B9810E947D0908956E
:10122E00ED83FE830895109639F080ED97E00197D7
:10123E00F1F7A8951197C9F70895EE230E2EEA2F10
:10124E0019F0EE0F0A94E9F70895EE230E2EEA2F09
:10125E0019F0E6950A94E9F70895FA9FF02DEB9FA1
:10126E00F00DEA9FE02DF10D08957A9F702D6B9F82
:10127E00700DF89F700DE99F700D6A9F602D710DB6
:10128E00FB9F600D711DE89F600D711D8827FA9FF1
:10129E00F02D610D781FEB9FF00D611D781FEA9FF9
:1012AE00E02DF10D681F781F0895ED91FC911197B7
:1012BE000895E199FECFFF93FFB7F894AEBBBFBB85
:1012CE00E09AEDB3FFBFFF910895E19B02C0A89590
:1012DE00FCCF9FB7F894AEBBBFBBE09A8DB3E817B7
:1012EE0019F0EDBBE29AE19A9FBF089500240A1609
:1012FE000B0608955A934A933A932A931A930A9394
:10130E0008955D814C813B812A8119810881089560
:00000001FF
