:0C0000000C942F000C9400000C940000E5
:10000C000C9400000C9400000C9400000C94000064
:10001C000C9400000C9400000C9400000C94000054
:10002C000C9400000C9400000C9400000C94000044
:10003C000C9400000C9400000C9400000C94000034
:10004C000C9400000C94000000000200040054000A
:10005C000000F894EE27ECBBF1E0FBBFEBBFE5BF73
:10006C008DE0A2E0BB27ED938A95E9F780E094E060
:10007C00A0E6ED930197E9F7E6E5F0E0859195911F
:10008C00009761F0A591B59105901590BF01F00115
:10009C0005900D920197E1F7FB01F0CFEFE5EDBF75
:1000AC00E4E0EEBFC0E6D1E00C945C00E0E9F1E0E6
:1000BC00FA93EA93A4E0B0E001D0FFCFBA93AA93ED
:1000CC001A93EFEFE7BB442455241981103019F42F
:1000DC00E1E036D081F1113019F4E2E031D059F180
:1000EC00123019F4E4E02CD031F1133019F4E8E0BB
:1000FC0027D009F1143019F4E0E122D0E1F01530E9
:10010C0019F4E0E21DD0B9F0163019F4E0E418D07F
:10011C0091F0173079F4E0E8E8BBAB81BC810E9428
:10012C00B40010E0F20131962F01E0E1F0E0E415AB
:10013C00F50509F0CBCFE0E0E8BB188125960895D2
:10014C00E8BBAB81BC810E94B4001F5FF201319609
:10015C002F01E0E1F0E0E415F5050895109639F073
:10016C0080ED97E00197F1F7A8951197C9F70895DD
:00000001FF
