:100000000C940C010C9400000C94A6020C940000BB
:100010000C9400000C9400000C9400000C94000060
:100020000C9400000C9400000C9400000C94000050
:100030000C9400000C9400000C9400000C94000040
:100040000C9400000C9400000C9400000C94000030
:100050000C94000030313233343536373839414270
:100060004344454641726D616E2052696173690077
:10007000393633383238330057656C636F6D65201D
:10008000746F20746865206F6E6C696E65206C619A
:100090006220636C61737365732064756520746F8F
:1000A00020436F726F6E6120646973656173652EA2
:1000B0000020202020202020202020202020202060
:1000C00020005175657374696F6E20333A00456E78
:1000D000746572206E756D62657220666F72535022
:1000E00045454428302D3530293A200053504545A8
:1000F0004420454520666F72200053657420737557
:10010000636365737366756C6C7900456E746572B4
:10011000206E756D62657220666F7254494D452878
:10012000302D393973293A200054494D4520454531
:1001300020666F722000456E746572206E756D6268
:10014000657220666F7257454947485428302D39EB
:100150003946293A2000574549474854204545200B
:10016000666F722000456E746572206E756D6265F3
:100170007220666F7254454D502832302D3830430E
:10018000293A200054454D5020454520666F722085
:10019000005175657374696F6E20340080C0100063
:1001A000C40254000C006001640039006C01780046
:1001B0000100A5016F001100A601B1000C00B701FC
:1001C000C2001E00C301CE000E00E101EC001100D0
:1001D000EF01FA001E0000020B010D001E022901B2
:1001E00011002B02FA0020003C0236010F005C02D5
:1001F000560111006B02FA001F007C0265010D0020
:100200009B0284011100A802FA000B00B9029101BF
:100210000200D4029C010000F894EE27ECBBF1E050
:10022000FBBFEBBFE5BF8DE0A2E0BB27ED938A9556
:10023000E9F780E094E0A0E6ED930197E9F7EEE9B5
:10024000F1E085919591009761F0A591B5910590A8
:100250001590BF01F00105900D920197E1F7FB01A8
:10026000F0CFEFE5EDBFE4E0EEBFC0E6D1E00C94E7
:10027000CB020E949D03A0E00E94FE02A0E6B1E036
:100280000E942C03E0E0EA93A1E00E94FE02A0E7B6
:10029000B0E00E943B03A8E9B8E00E94030408957F
:1002A0002297E0E0E883E9830E9412040CE611E063
:1002B00025EA31E046EA51E00E949D030E94A20334
:1002C0000E940B03E0E0EE83EF83D8010E947C03E1
:1002D000AE81BF81AE17BF0748F50E949D03A0E025
:1002E0000E94FE023A932A93E885F985E00FF11FF8
:1002F000FA93EA93A0E10E948803D9010E942C039B
:10030000EE81FF81309721F4AEEEB2E00E9403044B
:10031000ACE8B0E00E940304E0E0EA930E94A2038C
:10032000EE81FF813196EE83FF83CFCF0E941904C7
:10033000289608951A930A930E94A8030E94AD0379
:10034000E9F30E94AD03E9F70E94B403E9F70E94C4
:10035000B403D1F3EFE10E94BD0311F010E013C02C
:10036000EFE20E94BD0311F011E00DC0EFE40E9426
:10037000BD0311F012E007C0EFE80E94BD0311F0C9
:1003800013E001C0E7CFE02FF0E0E130A0E0FA0792
:1003900041F40E94C303AC914AD10E94C3035C9014
:1003A00020C0E230A0E0FA0739F40E94CC03A1811A
:1003B0000E94D503518015C0E430A0E0FA0739F45B
:1003C0000E94CC03A2810E94D50352800AC0E8306B
:1003D000A0E0FA0731F40E94CC03A3810E94D50368
:1003E0005380A2C01A930A9300E010E00E949D037C
:1003F000A0E004D1A7EBB1E00E94D8030E949D03C6
:10040000A0E0FCD0E3E0F0E0E017F10721F092DF9C
:100410000F5F1F4FF7CF88C00E94A80378940895FC
:100420001A930A930E949D03A0E0E8D0A3ECB1E0E8
:100430000E94DE03163348F40A3338F4103328F0F0
:10044000153311F4003309F407C00E949D03A0E0A6
:10045000D5D0A1EEB1E006C00E949D03A0E0CED0B1
:10046000AFEEB1E0F9D00E94EA030E94F003A0E0F1
:10047000C5D0A0E0B2E00E94DE031A3310F40A33C4
:1004800038F00E949D03A0E0B9D0AEE1B2E006C012
:100490000E949D03A0E0B2D0ABE2B2E0DDD00E94AA
:1004A000EA030E94F003A0E0A9D0ACE3B2E00E940E
:1004B000DE031A3310F40A3338F00E949D03A0E0E3
:1004C0009DD0ACE5B2E006C00E949D03A0E096D0AE
:1004D000ABE6B2E0C1D00E94EA030E94F003A0E0C4
:1004E0008DD0ACE7B2E00E94DE03193348F40A3342
:1004F00038F4123328F0183311F4003309F407C02C
:100500000E949D03A0E07AD0ABE9B2E006C00E9451
:100510009D03A0E073D0A8EAB2E09ED00E94EA0357
:10052000A8E7B5E00E940304099119910895EFEF3F
:10053000EABBE0E0EBBB0895EBB7E068EBBFECE0B3
:10054000E5BFE0E0E4BFE0E8EABF08950A921A924E
:10055000FA926A937A938A939A93AA93BA93EA93B4
:10056000FA93EFB7EA93E1E0E4BBE5BB0E94A8038E
:10057000E1DE0E94A803E0E0E5BBE991EFBFF9915D
:10058000E991B991A9919991899179916991F9909C
:10059000199009901895CBDFCFDFA0E17FD069DEFD
:1005A0007FDE20DF3DDF0E949D03A0E027D0A9EB86
:1005B000B2E00E94D8032FD02FDFFFCFAA93EBB376
:1005C000EF70AE2FE881E07FEA2BEBBB8DE08A95E0
:1005D000F1F7DA9A8DE08A95F1F7DA988DE08A954D
:1005E000F1F788C0AA93A881E9DFE881E295E88362
:1005F000A881E4DF85E88A95F1F77CC0AA93E881B9
:10060000F0E0EC52FD4FE081A981AE0FEBDF4980B5
:10061000788022960895A2E00E94F503ACE0E2DF24
:10062000A1E00E94F503E0E07E2E4E2E0895AA93ED
:10063000A881AA3011F0461448F0E0E0EA937394E0
:10064000A72DDCDFA881AA3009F454C04394D89ABE
:10065000A881C8DFD8984EC0BA93AA931A93A981EB
:10066000BA81ED91A983BA831E2FE03019F0A12F32
:10067000DEDFF5CF10C0BA93AA931A93E981FA810D
:100680003196E983FA833197E4911E2FE03019F017
:10069000A12FCDDFF3CF188123960895AA93EAB353
:1006A000E06FEABBD29AD09AD19ADA98D898D998C2
:1006B0006880E881E058E093D602E881E054E09356
:1006C000D702A4E1B0E00E9403040E94FB030E9451
:1006D000FB030E94FB03A0E271DF88EC90E001972E
:1006E000F1F7A8E27FDFA4E07DDFA5E87BDFA6E0ED
:1006F00079DF91DF21960895BA93AA93A991B991D0
:10070000EE27FF276D91662311F03196FBCF0895F8
:10071000AA937991E991F991A991B991CD017723A2
:1007200051F07A9561916D936623C9F7772319F09B
:100730007A956D93FBCFFC0108950E940B03E0E0D6
:10074000EA930895A1E00E94FE02DA010C942C03C2
:10075000E0EFE7BBEFEFE8BB0895EFEFE8BBE6B3F0
:10076000EF700E2F00300895A9E1B0E00E9403045D
:10077000E6B3EF700E2F00300895E8BBE6B3EF70DC
:100780000E2F00300895E12FA4ECB2E0F0E00E94BB
:100790000D04AE0FBF1F0895E12FA4ECB2E0F0E00E
:1007A0000E940D04EA0FFB1F08950E941703F4CF67
:1007B0000E942C03A4EFB1E00C9403040E942C03CC
:1007C0000E949A01152D0E949A01052DA2E3B0E026
:1007D0000C940304A12F0E941703A02F0C9417035D
:1007E000A8E7B5E00E940304A8CF0E94F202A3E0AC
:1007F000B0E00C940304A0E30E94DE0288EC90E0D9
:100800000197F1F70895109639F080ED97E0019780
:10081000F1F7A8951197C9F70895EE0FFF1FEE0F96
:10082000FF1F08955A934A933A932A931A930A936F
:1008300008955D814C813B812A8119810881089549
:00000001FF
