:100000000C9440000C9400000C9400000C94000030
:100010000C9400000C9400000C9400000C94000060
:100020000C9400000C9400000C9400000C94000050
:100030000C9400000C9400000C9400000C94000040
:100040000C9400000C9400000C9400000C94000030
:100050000C940000000000000000000000003F00C1
:1000600006005B004F0066006D007D0007007F000A
:100070006F000A0004005400130062015E000000DB
:10008000F894EE27ECBBF1E0FBBFEBBFE5BF8DE0E2
:10009000A2E0BB27ED938A95E9F780E094E0A0E623
:1000A000ED930197E9F7E2E7F0E0859195910097EC
:1000B00061F0A591B59105901590BF01F0010590F3
:1000C0000D920197E1F7FB01F0CFEFE5EDBFE4E022
:1000D000EEBFC0E6D1E00C946D0007D01AD077D007
:1000E0003FD08AD0CFD0FCCFFFCFEFEFE7BB442487
:1000F0005524E4E0F0E04E165F0654F4EFEFE8BB61
:100100001AD1E0E0E8BB17D1F20131962F01F1CF0F
:100110000895EFEFE7BB44245524E2E0F0E04E16EB
:100120005F06E4F4C798C09A06D1C098C19A03D17B
:10013000C198C29A00D1C298C39AFDD0C398C49AFC
:10014000FAD0C498C59AF7D0C598C69AF4D0C69884
:10015000C79AF1D0F20131962F01DFCFC7980895E9
:1001600044245524E0E0EABBEFEFE7BBC89902C0A6
:10017000C09801C0C09AC99902C0C19801C0C19A73
:10018000CA9902C0C29801C0C29ACB9902C0C39852
:1001900001C0C39ACC9902C0C49801C0C49ACD9939
:1001A00002C0C59801C0C59ACE9902C0C69801C0C8
:1001B000C69ACF9902C0C79801C0C79AF20131967A
:1001C0002F01E2E3F0E0E415F50561F60895B7D0FC
:1001D000E0E0E2BBE9E0F0E02F010024401450042D
:1001E00054F0F201B1D0A8EEB3E00E940E02F20189
:1001F00031972F01F2CF0895B0D0B4D0DDD0A4D084
:10020000E0D0E3D0E4E0E2BBF5019ED0DAD0E2E05A
:10021000E2BBF40199D0D5D0E5D0F1F4CDD0309740
:10022000D1F4EAD0A1F4E9E0F0E06F010A2C0B2848
:1002300049F45F01082C092821F0F40131974F019E
:10024000319604C0F50131975F01319604C0F60183
:1002500031976F013196D9D0A0916001B0916101C1
:10026000109761F400240C140D0441F400240A14C6
:100270000B0421F400240814090409F001C001C092
:10028000BDCF08956AD06ED0849902C08824992485
:10029000859902C0AA24BB24869902C0CC24DD24FF
:1002A000879905C0E0E0E0936001E093610184D0AC
:1002B0004BD087D08AD0E4E0E2BBF50145D081D0B5
:1002C000E2E0E2BBF40140D07CD08CD0F1F474D0F9
:1002D0003097D1F491D0A1F4E9E0F0E06F010A2C5D
:1002E0000B2849F45F01082C092821F0F40131970B
:1002F0004F01319604C0F50131975F01319604C07A
:10030000F60131976F01319680D0A0916001B091D4
:100310006101109761F400240C140D0441F40024D1
:100320000A140B0421F400240814090409F001C084
:1003300001C0AACF0895A4EFB1E00C940E02EFE043
:10034000E1BBEFEFE4BB0895A2E6B1E0EE0FFF1FC3
:10035000AE0FBF1FEC91E5BB0895E0E0EABB662459
:100360007724EDCF44245524E0E0E0936001E0934E
:100370006101E9B3F0E0DF01EAE0F0E00E9434025D
:100380006F01E9B3F0E0DF01EAE0F0E00E942F0244
:100390003F01D301EAE0F0E00E9434025F01D301A3
:1003A000EAE0F0E00E942F023F01D301EAE0F0E032
:1003B0000E9434024F010895E0916001F0916101C3
:1003C0000895A4E0B0E00C940E02E8E0E2BBF60170
:1003D000A2E6B1E0EE0FFF1FAE0FBF1FEC91E05899
:1003E000E5BBEFCFE1E0E2BBF20131962F01EAE09D
:1003F000F0E0E415F5050895EAE0F0E0E09360012F
:10040000F09361010C2C0D280895D6DF3297E0930C
:100410006001F0936101442455240895109639F049
:1004200080ED97E00197F1F7A8951197C9F7089526
:10043000F195E195F04008950024112490E1AA0F70
:10044000BB1F001C111C0E1A1F0A18F40E0E1F1ED3
:1004500001C0A1609A9599F7FD01D001089512D0CD
:10046000EBDF0EF4E5DF0895E894B7FF04C0A09534
:10047000B09511966894F7FDDBDFDEDFFD010EF429
:10048000D7DF0895E894F7FF02C0D2DF6894B7FF82
:1004900006C0A095B095119600F8039400FA08954F
:00000001FF
