:0A0000000C9440000C9400000C94D6
:10000A0000000C9400000C9400000C9400000C9466
:10001A0000000C9400000C9400000C9400000C9456
:10002A0000000C9400000C9400000C9400000C9446
:10003A0000000C9400000C9400000C9400000C9436
:10004A0000000C9400000C94000000000000000066
:10005A00000000003F0006005B004F0066006D00D4
:10006A007D0007007F006F000A000400540013009F
:10007A0062015E000000F894EE27ECBBF1E0FBBFE2
:10008A00EBBFE5BF8DE0A2E0BB27ED938A95E9F7C8
:10009A0080E094E0A0E6ED930197E9F7E2E7F0E06B
:1000AA0085919591009761F0A591B591059015906C
:1000BA00BF01F00105900D920197E1F7FB01F0CF26
:1000CA00EFE5EDBFE4E0EEBFC0E6D1E00C946D00D1
:1000DA0001D0FFCFE0E0EABB66247724EFE0E1BB82
:1000EA00EFEFE4BB44245524E0E0E0936001E093A1
:1000FA006101E9B3F0E0DF017BD06F01E9B3F0E021
:10010A00DF017BD05F01D30178D04F01849902C00F
:10011A0088249924859902C0AA24BB24869902C0FE
:10012A00CC24DD24879905C0E0E0E0936001E093E8
:10013A0061016AD06ED075D0E8E0E2BBF60169D001
:10014A00E0586FD0E4E0E2BBF50163D06AD0E2E0A8
:10015A00E2BBF4015ED065D0E1E0E2BBF201319688
:10016A002F01EAE0F0E0E415F50561F54DD030978E
:10017A0009F5EAE0F0E0E0936001F09361010C2CEC
:10018A000D28A1F4E9E0F0E06F010A2C0B2849F4EC
:10019A005F01082C092821F0F40131974F013196AB
:1001AA0004C0F50131975F01319604C0F601319719
:1001BA006F01319629D03297E0936001F093610183
:1001CA0044245524A0916001B0916101109761F413
:1001DA0000240C140D0441F400240A140B0421F425
:1001EA0000240814090409F001C001C08FCF089542
:1001FA00EAE0F0E00E9441010895EAE0F0E00E949E
:10020A003C013F01D301F4CFE0916001F09161011B
:10021A000895A2E6B1E0EE0FFF1FAE0FBF1FEC91EB
:10022A000895E5BBA4E0B0E00C941B01109639F0E8
:10023A0080ED97E00197F1F7A8951197C9F708950E
:10024A00F195E195F04008950024112490E1AA0F58
:10025A00BB1F001C111C0E1A1F0A18F40E0E1F1EBB
:10026A0001C0A1609A9599F7FD01D001089512D0B5
:10027A00EBDF0EF4E5DF0895E894B7FF04C0A0951C
:10028A00B09511966894F7FDDBDFDEDFFD010EF411
:10029A00D7DF0895E894F7FF02C0D2DF6894B7FF6A
:1002AA0006C0A095B095119600F8039400FA089537
:00000001FF
