:040000000C94080252
:100004000C9400000C945C020C9400000C9400000E
:100014000C9400000C9400000C9400000C9400005C
:100024000C9400000C9400000C9400000C9400004C
:100034000C9400000C9400000C9400000C9400003C
:100044000C9400000C9400000C9400000C9400002C
:1000540041726D616E2052696173690039363338BB
:100064003238330057656C636F6D6520746F20748C
:100074006865206F00656C636F6D6520746F207414
:100084006865206F6E006C636F6D6520746F2074FB
:100094006865206F6E6C00636F6D6520746F2074EB
:1000A4006865206F6E6C69006F6D6520746F2074D5
:1000B4006865206F6E6C696E006D6520746F2074C6
:1000C4006865206F6E6C696E65006520746F2074BE
:1000D4006865206F6E6C696E65200020746F2074F3
:1000E4006865206F6E6C696E65206C00746F207497
:1000F4006865206F6E6C696E65206C61006F20749A
:100104006865206F6E6C696E65206C616200207496
:100114006865206F6E6C696E65206C616220007486
:100124006865206F6E6C696E65206C616220630087
:100134006865206F6E6C696E65206C616220636C0B
:100144000065206F6E6C696E65206C616220636C63
:100154006100206F6E6C696E65206C616220636C57
:100164006173006F6E6C696E65206C616220636CF4
:10017400617373006E6C696E65206C616220636CE0
:1001840061737365006C696E65206C616220636CD9
:10019400617373657300696E65206C616220636CC2
:1001A400617373657320006E65206C616220636CFB
:1001B400617373657320640065206C616220636CF5
:1001C400617373657320647500206C616220636CD5
:1001D400617373657320647565006C616220636C80
:1001E4006173736573206475652000616220636CBC
:1001F4006173736573206475652074006220636C99
:1002040061737365732064756520746F0020636C7B
:1002140061737365732064756520746F2000636C6B
:1002240061737365732064756520746F2043006C7B
:1002340061737365732064756520746F20436F0068
:1002440061737365732064756520746F20436F72E6
:1002540000737365732064756520746F20436F7237
:100264006F007365732064756520746F20436F722B
:100274006F6E0065732064756520746F20436F7220
:100284006F6E6100732064756520746F20436F7214
:100294006F6E6120002064756520746F20436F7257
:1002A4006F6E6120640064756520746F20436F7203
:1002B4006F6E6120646900756520746F20436F72EE
:1002C4006F6E61206469730020746F20436F726FD6
:1002D4006E6120646973656100746F20436F726F8F
:1002E4006E6120646973656173006F20436F726F80
:1002F4006E6120646973656173650020436F726F7A
:100304006E6120646973656173652E0080C00C00A2
:100314006001540011006C01680011007D01790036
:1003240011008E018A0011009F019B001100B00191
:10033400AC001100C101BD001100D201CE001100BA
:10034400E301DF001100F401F000110005020101D6
:1003540011001602120111002702230111003802B4
:10036400340111004902450111005A0256011100DD
:100374006B02670111007C02780111008D02890172
:1003840011009E029A011100AF02AB011100C002DC
:10039400BC011100D102CD011100E202DE01110005
:1003A400F302EF011100040300021100150311020E
:1003B40011002603220211003703330211004803FF
:1003C400440211005903550211006A036602110028
:1003D4007B03770211008C03880211009D039902AC
:1003E4001100AE03AA021100BF03BB021100D00327
:1003F400CC021100E103DD021100F203EE02110050
:100404000304FF020200140410030000F894EE2712
:10041400ECBBF1E0FBBFEBBFE5BF8DE0A2E0BB2787
:10042400ED938A95E9F780E094E0A0E6ED930197D7
:10043400E9F7E2E1F3E085919591009761F0A591E8
:10044400B59105901590BF01F00105900D920197AB
:10045400E1F7FB01F0CFEFE5EDBFE4E0EEBFC0E66E
:10046400D1E00C945D025AD0E0E0EA93A0E049D0D8
:10047400A0E6B1E072D0E0E0EA93A1E042D0A0E6C9
:10048400B0E07AD0A8E9B8E00E9408030895EFEF3D
:10049400EABBE0E0EBBBEFE0E7BBE0E0E8BB0895DC
:1004A400EBB7E068EBBFE8E0E5BFE0E0E4BFE0E81D
:1004B400EABF08951895EBDFF3DFA0E170D0D3DF36
:1004C400FFCFAA93EBB3EF70AE2FE881E07FEA2B66
:1004D400EBBB8DE08A95F1F7DA9A8DE08A95F1F716
:1004E400DA988DE08A95F1F783C0AA93A881E9DFB1
:1004F400E881E295E883A881E4DF85E88A95F1F74D
:1005040077C0AA93E881F0E0EC5EFB4FE081A9811B
:10051400AE0FEBDF5980488022960895A2E06AD09E
:10052400ACE0E3DFA1E066D0E0E04E2E5E2E08955D
:10053400AA93A881AA3011F0571448F0E0E0EA9396
:100544004394A42DDEDFA881AA3009F451C053944A
:10055400D89AA881CADFD8984BC0BA93AA931A93A1
:10056400A981BA81ED91A983BA831E2FE03019F0D5
:10057400A12FDEDFF5CF10C0BA93AA931A93E981B5
:10058400FA813196E983FA833197E4911E2FE030A2
:1005940019F0A12FCDDFF3CF188123960895AA93E4
:1005A400EAB3E06FEABBD29AD09AD19ADA98D89893
:1005B400D9987880E881E058E0931604E881E05403
:1005C400E0931704A4E1B0E00E94080318D017D008
:1005D40016D0A0E276DF88EC90E00197F1F7A8E26C
:1005E40084DFA4E082DFA5E880DFA6E07EDF96DF7B
:1005F400219608957ADFA3E0B0E00C940803A0E309
:1006040060DF88EC90E00197F1F70895109639F0D7
:1006140080ED97E00197F1F7A8951197C9F7089530
:00000001FF
