:0A0000000C94F3000C9400000C9423
:10000A00F2010C9400000C9400000C9400000C9473
:10001A0000000C9400000C9400000C9400000C9456
:10002A0000000C9400000C9400000C9400000C9446
:10003A0000000C9400000C9400000C9400000C9436
:10004A0000000C9400000C94000030313233343537
:10005A003637383941424344454641726D616E2014
:10006A00526961736900393633383238330057655B
:10007A006C636F6D6520746F20746865206F6E6C99
:10008A00696E65206C616220636C617373657320AD
:10009A0064756520746F20436F726F6E61206469A6
:1000AA0073656173652E002000456E746572206E5B
:1000BA00756D62657220666F7253504545442830EB
:1000CA002D3530293A2000535045454420454520D6
:1000DA00666F72200053657420737563636573736A
:1000EA0066756C6C7900456E746572206E756D620A
:1000FA00657220666F7254494D4528302D3939731F
:10010A00293A200054494D4520454520666F722002
:10011A0000456E746572206E756D62657220666F39
:10012A007257454947485428302D393946293A20CB
:10013A000057454947485420454520666F722000BC
:10014A00456E746572206E756D62657220666F7297
:10015A0054454D502832302D383043293A20005426
:10016A00454D5020454520666F72200080C0100022
:10017A009E0254000C006001640039006C01780092
:10018A000100A5016F000200A601B1001E00A8012E
:10019A00B3000E00C601D1001100D401DF001E0019
:1001AA00E501F0000D0003020E0111001002DF004C
:1001BA00200021021B010F0041023B0111005002E5
:1001CA00DF001F0061024A010D008002690111006F
:1001DA008D02DF000200AE0276010000F894EE27DD
:1001EA00ECBBF1E0FBBFEBBFE5BF8DE0A2E0BB27B4
:1001FA00ED938A95E9F780E094E0A0E6ED93019704
:10020A00E9F7E8E7F1E085919591009761F0A5910A
:10021A00B59105901590BF01F00105900D920197D7
:10022A00E1F7FB01F0CFEFE5EDBFE4E0EEBFC0E69A
:10023A00D1E00C9417021A930A930E94AA020E9410
:10024A00AF02E9F30E94AF02E9F70E94B602E9F7AA
:10025A000E94B602D1F3EFE10E94BF0211F010E052
:10026A0013C0EFE20E94BF0211F011E00DC0EFE4EB
:10027A000E94BF0211F012E007C0EFE80E94BF021D
:10028A0011F013E001C0E7CFE02FF0E0E130A0E089
:10029A00FA0741F40E94C502AC9103D10E94C5023B
:1002AA005C9020C0E230A0E0FA0739F40E94CE0246
:1002BA00A1810E94D702518015C0E430A0E0FA075C
:1002CA0039F40E94CE02A2810E94D70252800AC04B
:1002DA00E830A0E0FA0731F40E94CE02A3810E941E
:1002EA00D702538068C01A930A930E94DA02A8EAD6
:1002FA00B1E00E94E102163348F40A3338F41033AD
:10030A0028F0153311F4003309F405C00E94DA020B
:10031A00A6ECB1E004C00E94DA02A4EDB1E0D6D0A6
:10032A000E94ED020E94F302A5EEB1E00E94E102F2
:10033A001A3310F40A3328F00E94DA02A3E0B2E07A
:10034A0004C00E94DA02A0E1B2E0C0D00E94ED022D
:10035A000E94F302A1E2B2E00E94E1021A3310F411
:10036A000A3328F00E94DA02A1E4B2E004C00E9433
:10037A00DA02A0E5B2E0AAD00E94ED020E94F302DE
:10038A00A1E6B2E00E94E102193348F40A3338F4D4
:10039A00123328F0183311F4003309F405C00E940F
:1003AA00DA02A0E8B2E004C00E94DA02ADE8B2E0E4
:1003BA008DD00E94ED02099119910895EFEFEABBE1
:1003CA00E0E0EBBB0895EBB7E068EBBFECE0E5BF1C
:1003DA00E0E0E4BFE0E8EABF08950A921A92FA92CE
:1003EA006A937A938A939A93AA93BA93EA93FA931B
:1003FA00EFB7EA93E1E0E4BBE5BB0E94AA021BDF88
:10040A000E94AA02E0E0E5BBE991EFBFF991E99108
:10041A00B991A9919991899179916991F9901990D4
:10042A0009901895CBDFCFDFA0E161D05CDFFFCF69
:10043A00AA93EBB3EF70AE2FE881E07FEA2BEBBB18
:10044A008DE08A95F1F7DA9A8DE08A95F1F7DA98D4
:10045A008DE08A95F1F777C0AA93A881E9DFE88150
:10046A00E295E883A881E4DF85E88A95F1F76BC015
:10047A00AA93E881F0E0E255FD4FE081A981AE0F31
:10048A00EBDF4980788022960895A2E00E94F80264
:10049A00ACE0E2DFA1E00E94F802E0E07E2E4E2E00
:1004AA000895AA93A881AA3011F0461448F0E0E012
:1004BA00EA937394A72DDCDFA881AA3009F443C01C
:1004CA004394D89AA881C8DFD8983DC0BA93AA9312
:1004DA001A93A981BA81ED91A983BA831E2FE030BC
:1004EA0019F0A12FDEDFF5CF188123960895AA937C
:1004FA00EAB3E06FEABBD29AD09AD19ADA98D8983E
:10050A00D9986880E881E058E093B002E881E05425
:10051A00E093B102A4E1B0E00E9406030E94FE0249
:10052A000E94FE020E94FE02A0E282DF88EC90E0B6
:10053A000197F1F7A8E290DFA4E08EDFA5E88CDF4F
:10054A00A6E08ADFA2DF21960895E0EFE7BBEFEF8E
:10055A00E8BB0895EFEFE8BBE6B3EF700E2F00306B
:10056A000895A9E1B0E00E940603E6B3EF700E2FEA
:10057A0000300895E8BBE6B3EF700E2F00300895FF
:10058A00E12FAEE9B2E0F0E00E941003AE0FBF1F08
:10059A000895E12FAEE9B2E0F0E00E941003EA0FFD
:1005AA00FB1F08950E945602F4CF0E944A02E0E01F
:1005BA00EA93A0E00C943D020E946B020E94200183
:1005CA00152D0E942001052DA2E3B0E00C9406032C
:1005DA00A12F0E945602A02F0C945602A8E7B5E05C
:1005EA000E940603E2CF0E943102A3E0B0E00C941D
:1005FA000603A0E30E941D0288EC90E00197F1F740
:10060A000895109639F080ED97E00197F1F7A895D3
:10061A001197C9F70895EE0FFF1FEE0FFF1F0895F8
:00000001FF
