:0C0000000C9456000C9400000C940000BE
:10000C000C9400000C94C7000C9400000C9400009D
:10001C000C9400000C9400000C9483000C940000D1
:10002C000C9400000C9400000C9400000C94000044
:10003C000C9400000C9400000C9400000C94000034
:10004C000C9400000C9400001027E80364000A00D4
:10005C0001000010000110000100010073706565C3
:10006C00643A33322073746570732020706572208B
:10007C007365636F6E64000080C001002D4E414EAD
:10008C0000494E4600000100890166001B0060011A
:10009C00680002008B01840001008F0186000000C3
:1000AC00F894EE27ECBBF1E0FBBFEBBFE5BF8DE0B6
:1000BC00A2E0BB27ED938A95E9F780E094E0A0E6F7
:1000CC00ED930197E9F7E2E9F0E0859195910097BE
:1000DC0061F0A591B59105901590BF01F0010590C7
:1000EC000D920197E1F7FB01F0CFEFE5EDBFE4E0F6
:1000FC00EEBFC0E6D1E00C94DB000E949202E9B3A3
:10010C00F0E0E0937B01F0937C01AAE5B0E00E9463
:10011C001A04DF01EFEFF0E00E9432043596ADE7F0
:10012C00B1E00E940D040E9429030E944504E09155
:10013C007D01F0917E0160917F0170918001A3E3BC
:10014C00B3E383E290E40E94B303A0E0B0E080E06C
:10015C009FE30E946303E0938101F093820160931B
:10016C00830170938401A0918101B09182018091EF
:10017C008301909184010E947B020E94F002ECBFEB
:10018C0006C00E949202EBE0E4BD59D04FD0E99139
:10019C00EFBFF991E991B991A991999189917991CF
:1001AC006991F99019900990189506D07894A0E16E
:1001BC000E941C0235D0FFCFE0E0EABBEBBBE8EFBE
:1001CC00E7BBE0E0E8BBEFEFE4BBE0E0E5BBE1BBA5
:1001DC00E2BB0895E5E6E3BFE0E0E2BFE0E8ECBF98
:1001EC00E0E0EFBDEEBDEDBDECBDE7BDE6BDEBBDAA
:1001FC00EABDE9BDE8BDE2BDE7E0E5BDEBE0E4BD8D
:10020C00E0E0E3BDE1E4E9BFE0E0E5BFE4BFEAB96B
:10021C00E0E8E8B9E0E0E0BFE6B9EDB9E6BF089583
:10022C00E0E0EABBE3E0E1BBD5DF0895CDD0E0E050
:10023C00EA93A0E0BCD0A0E6B1E0E7D00895A5E831
:10024C00B1E0ED91FD913196FE93EE93A091880172
:10025C00AA2312F4909807C00E94A00219F4909857
:10026C00919A02C0909A91980E94A00201F50E9466
:10027C00A602119721F4C49AC598C698C7980E94F3
:10028C00A602129721F4C498C59AC698C7980E94E2
:10029C00A602139721F4C498C598C69AC7980E94D1
:1002AC00A602149721F4C498C598C698C79AE091F1
:1002BC008901F0918A01309701F50E94A6021197ED
:1002CC0021F4C498C598C698C79A0E94A6021297A2
:1002DC0021F4C498C598C69AC7980E94A602139791
:1002EC0021F4C498C59AC698C7980E94A602149780
:1002FC0021F4C49AC598C698C7980E94A60215976F
:10030C0029F4E0E0E0938501E0938601A7E8B1E0F1
:10031C00ED91FD913196FE93EE93A0918701B091F2
:10032C008801A536E0E0BE07CCF0E0EBFFEFE093F0
:10033C008701F09388010E94A00231F4E0E0E09381
:10034C008901E0938A0106C0E1E0F0E0E0938901C5
:10035C00F0938A01C498C598C698C798A091880153
:10036C00AA2322F4C498C598C698C7980895AA934E
:10037C00E5B3EF70AE2FE881E07FEA2BE5BB8DE0B3
:10038C008A95F1F7AA9A8DE08A95F1F7AA988DE0F3
:10039C008A95F1F777C0AA93A881E9DFE881E29505
:1003AC00E883A881E4DF85E88A95F1F76BC0AA930E
:1003BC00E881F0E0E557FE4FE081A981AE0FEBDF5D
:1003CC005980488022960895A2E00E94AB02ACE0CE
:1003DC00E2DFA1E00E94AB02E0E04E2E5E2E08951B
:1003EC00AA93A881AA3011F0571448F0E0E0EA93E0
:1003FC004394A42DDCDFA881AA3009F443C05394A4
:10040C00A89AA881C8DFA8983DC0BA93AA931A935A
:10041C00A981BA81ED91A983BA831E2FE03019F01E
:10042C00A12FDEDFF5CF188123960895AA93E4B3AC
:10043C00E06FE4BBA29AA09AA19AAA98A898A9984E
:10044C007880E881E058E0938D01E881E054E093F6
:10045C008E01A4E1B0E00E94B9020E94B1020E9498
:10046C00B1020E94B102A0E282DF88EC90E0019719
:10047C00F1F7A8E290DFA4E08EDFA5E88CDFA6E020
:10048C008ADFA2DF219608950E9459047B816A813C
:10049C00F981E88177FB770F67FD7160972F9E5785
:1004AC0081F078F0983190F4AA27BB27882708941C
:1004BC008795B795A7959A95D1F7EA23FB236823DF
:1004CC0005C0E8947727EE27FF2766276F77769588
:1004DC0008F4606877F9A991B99189919991EA1713
:1004EC00FB076807790797FB08950E9459040E943F
:1004FC004F040E944A020E94540419F40E944A04B8
:10050C0009C0E6F70E944A04A0E0B0E080E89FE34F
:10051C000E945C03249608950A921A92FA926A93A6
:10052C007A938A939A93AA93BA93EA93FA93EFB72E
:10053C00EA930895A0918901B0918A0111970895C9
:10054C00A0918501B091860108950E94D101A3E08C
:10055C00B0E00C94B902A0E30E94BD0188EC90E0DD
:10056C000197F1F70895109639F080ED97E0019717
:10057C00F1F7A8951197C9F70895552342F450380F
:10058C0011F4E0FF04C03196691F791F6BF050E83D
:10059C00572711F45F93CFC05F3F31F0660F000C0B
:1005AC0057956795752F08955F9300200AF0CFC07B
:1005BC00C8C050E8192E1522880F991F9527550F82
:1005CC00879550E8072E0522660F771F7527550F64
:1005DC0067950895689401C0E8945F93F2DF7038D2
:1005EC0018F07F3F08F4A7C056E1571BAAF45195A9
:1005FC0058300EF4593030F0EFEFFFEF6FEF7FE72C
:10060C0077F91AC077275523B9F0EE0FFF1F661F35
:10061C00771F5A95D1F710C07727583028F0EF2F55
:10062C00F62F672F5850F9CF552331F076956795F3
:10063C00F795E7955A95D1F700200AF4E0D05F9131
:10064C000895689401C0E894309760407040B1F010
:10065C00002426F0772312F40094D1D0172E7EE1DB
:10066C00112032F07A95EE0FFF1F661F111CF9CF87
:10067C00EF2FF62F612D5F938ADF5F9108954F93D3
:10068C00AF01FD01DA01AB01BC01CA01402D012C07
:10069C00142E4F910895EA0FFB1F681F0895E095E3
:1006AC00F0956095EF5FFF4F6F4F08955F9381DF7B
:1006BC00903871F150E8152604C05F937ADF9038BA
:1006CC0039F1703821F1572F591B2BF112F4D7DF68
:1006DC00FACF583118F0AA27BB278827583028F0B2
:1006EC00AB2FB82F88275850F9CF552329F0869572
:1006FC00B795A7955A95D9F7502D512572F0CBDFA8
:10070C0038F46795F795E795739513F420C0B7DF28
:10071C003EDF5F910895D8F7FBCFEA1BFB0B680B0C
:10072C0051F010F40094BBDF662392F3EE0FFF1F21
:10073C00661F7A95CBF7EE27FF27662777275F9101
:10074C000895EFEFFFEF6FE77FEF5F910895EFEF05
:10075C00FFEF6FE77FE75F9108955F932ADF7038B3
:10076C0051F3903841F301240894791F23F41CF3BE
:10077C0000203AF3ECCF0F921F932F933F934F939C
:10078C00112722279927689FA0018F9F302D410D9B
:10079C00591F6B9F300D411D591F8E9F27D0BF9F36
:1007AC0025D06A9F23D0BE9F1DD0AF9F1BD0AE9F7C
:1007BC00110D291F391F491F591FE32FF42F652FC6
:1007CC00522F4F913F912F911F910F9066232AF03A
:1007DC00550FEE1FFF1F661F02C073954BF2CDDE47
:1007EC005F910895100D211D391F02C0200D311D80
:1007FC00491F591F0895F195E195F0400895F09522
:10080C0060957095E195FF4F6F4F7F4F08956F2F57
:10081C00660F660B762F0895FA9FF02DEB9FF00D67
:10082C00EA9FE02DF10D08951CD0F6DF0EF4E3DF06
:10083C0008950024112490E1AA0FBB1F001C111C69
:10084C000E1A1F0A18F40E0E1F1E01C0A1609A95F5
:10085C0099F7FD01D001089504D0EBDF0EF4CBDF46
:10086C000895E894F7FF02C0C6DF6894B7FF06C08E
:10087C00A095B095119600F8039400FA0895ED93A5
:10088C00FD936D937C930895E881F9816A817B8156
:10089C000895A881B9818A819B810895E883F983A1
:1008AC006A837B8308959A938A93BA93AA93089543
:00000001FF
