:020000000C945E
:1000020059000C9400000C9400000C9400000C9415
:1000120091010C9400000C9400000C9400000C94CC
:1000220000000C94C0000C9400000C9400000C948E
:1000320000000C9400000C9400000C9400000C943E
:1000420000000C9400000C9400000C9400000C942E
:1000520000001027E80364000A00010000100001FC
:1000620010000100000000000000010073706565CF
:10007200643A333220737465707320207065722085
:100082007365636F6E64000080C001002D4E414EA7
:1000920000494E4600000800040066001B00600193
:1000A2006E00020083018A00010088018C000000BA
:1000B200F894EE27ECBBF1E0FBBFEBBFE5BF8DE0B0
:1000C200A2E0BB27ED938A95E9F780E094E0A0E6F1
:1000D200ED930197E9F7E8E9F0E0859195910097B2
:1000E20061F0A591B59105901590BF01F0010590C1
:1000F2000D920197E1F7FB01F0CFEFE5EDBFE4E0F0
:10010200EEBFC0E6D1E00C94A501E0E0EABBEBBB98
:10011200E8EFE7BBE0E0E8BBEFEFE4BBE0E0E5BB24
:10012200E1BBE2BB0895E5E6E3BFE0E0E2BFE0E861
:10013200ECBFE0E0EFBDEEBDEDBDECBDE7BDE6BD61
:10014200EBBDEABDE9BDE8BDE2BDE7E0E5BDEBE040
:10015200E4BDE0E0E3BDE1E4E9BFE0E0E5BFE4BF28
:10016200EAB9E0E8E8B9E0E0E0BFE6B9EDB9E6BF38
:100172000895E0E0EABBE3E0E1BBD5DF08950E9429
:10018200830249B25524F201AAE5B0E00E940504B7
:10019200DF01EFEFF0E00E941D043596ABE7B1E01E
:1001A2000E94F8030E9414030E943004E0917B0134
:1001B200F0917C0160917D0170917E01A3E3B3E334
:1001C20083E290E40E949E03A0E0B0E080E09FE31F
:1001D2000E944E03E0937F01F093800160938101BE
:1001E20070938201A0917F01B09180018091810181
:1001F200909182010E946C020E94DB02ECBF96C0C9
:10020200D6D0E0E0EA93A0E0C5D0A0E6B1E0F2D01B
:100212000895F30131963F0100248014900414F4F0
:10022200909807C00E94910219F49098919A02C086
:10023200909A91980E94910221F5E1E0F0E0E61592
:10024200F70521F4C49AC598C698C798E2E0F0E091
:10025200E615F70521F4C498C59AC698C798E3E055
:10026200F0E0E615F70521F4C498C598C69AC79838
:10027200E4E0F0E0E615F70521F4C498C598C698C5
:10028200C79A0A2C0B2821F5E1E0F0E0E615F70504
:1002920021F4C498C598C698C79AE2E0F0E0E61542
:1002A200F70521F4C498C598C69AC798E3E0F0E030
:1002B200E615F70521F4C498C59AC698C798E4E0F4
:1002C200F0E0E615F70521F4C49AC598C698C798D8
:1002D200E5E0F0E0E615F70511F466247724F40171
:1002E20031964F01E4E6F0E0E815F90584F4E0EB1D
:1002F200FFEF4F010E94910219F4AA24BB2403C00C
:10030200E1E0F0E05F01C498C598C698C798002460
:100312008014900424F4C498C598C698C798089588
:100322000E948302EBE0E4BD74DF6ADFE991EFBF74
:10033200F991E991B991A9919991899179916991EB
:10034200F990199009901895E0DE7894A0E163D0B5
:1003520010DFFFCFAA93E5B3EF70AE2FE881E07F05
:10036200EA2BE5BB8DE08A95F1F7AA9A8DE08A9592
:10037200F1F7AA988DE08A95F1F77AC0AA93A8813D
:10038200E9DFE881E295E883A881E4DF85E88A95E0
:10039200F1F76EC0AA93E881F0E0ED57FE4FE081DD
:1003A200A981AE0FEBDFD980C88022960895A2E022
:1003B2000E949602ACE0E2DFA1E00E949602E0E039
:1003C200CE2EDE2E0895AA93A881AA3021F0E091C4
:1003D2008701DE1648F0E0E0EA93C394AC2DDADF41
:1003E200A881AA3009F444C0D394A89AA881C6DF90
:1003F200A8983EC0BA93AA931A93A981BA81ED91A3
:10040200A983BA831E2FE03019F0A12FDCDFF5CFCC
:10041200188123960895AA93E4B3E06FE4BBA29AED
:10042200A09AA19AAA98A898A998E881E09387012E
:10043200E058E0938501E881E054E0938601A4E16D
:10044200B0E00E94A4020E949C020E949C020E94B0
:100452009C02A0E27FDF88EC90E00197F1F7A8E22E
:100462008DDFA4E08BDFA5E889DFA6E087DF9FDFD1
:10047200219608950E9444047B816A81F981E88172
:1004820077FB770F67FD7160972F9E5781F078F0A9
:10049200983190F4AA27BB27882708948795B795A7
:1004A200A7959A95D1F7EA23FB23682305C0E89420
:1004B2007727EE27FF2766276F77769508F460681F
:1004C20077F9A991B99189919991EA17FB07680780
:1004D200790797FB08950E9444040E943A040E94FF
:1004E2003B020E943F0419F40E94350409C0E6F75A
:1004F2000E943504A0E0B0E080E89FE30E94470339
:10050200249608950A921A92FA926A937A938A9397
:100512009A93AA93BA93EA93FA93EFB7EA93089558
:10052200E1E0F0E0EA15FB0508950E94BF01A3E0B7
:10053200B0E00C94A402A0E30E94AB0188EC90E02E
:100542000197F1F70895109639F080ED97E0019741
:10055200F1F7A8951197C9F70895552342F4503839
:1005620011F4E0FF04C03196691F791F6BF050E867
:10057200572711F45F93CFC05F3F31F0660F000C35
:1005820057956795752F08955F9300200AF0CFC0A5
:10059200C8C050E8192E1522880F991F9527550FAC
:1005A200879550E8072E0522660F771F7527550F8E
:1005B20067950895689401C0E8945F93F2DF7038FC
:1005C20018F07F3F08F4A7C056E1571BAAF45195D3
:1005D20058300EF4593030F0EFEFFFEF6FEF7FE756
:1005E20077F91AC077275523B9F0EE0FFF1F661F60
:1005F200771F5A95D1F710C07727583028F0EF2F80
:10060200F62F672F5850F9CF552331F0769567951D
:10061200F795E7955A95D1F700200AF4E0D05F915B
:100622000895689401C0E894309760407040B1F03A
:10063200002426F0772312F40094D1D0172E7EE105
:10064200112032F07A95EE0FFF1F661F111CF9CFB1
:10065200EF2FF62F612D5F938ADF5F9108954F93FD
:10066200AF01FD01DA01AB01BC01CA01402D012C31
:10067200142E4F910895EA0FFB1F681F0895E0950D
:10068200F0956095EF5FFF4F6F4F08955F9381DFA5
:10069200903871F150E8152604C05F937ADF9038E4
:1006A20039F1703821F1572F591B2BF112F4D7DF92
:1006B200FACF583118F0AA27BB278827583028F0DC
:1006C200AB2FB82F88275850F9CF552329F086959C
:1006D200B795A7955A95D9F7502D512572F0CBDFD2
:1006E20038F46795F795E795739513F420C0B7DF53
:1006F2003EDF5F910895D8F7FBCFEA1BFB0B680B37
:1007020051F010F40094BBDF662392F3EE0FFF1F4B
:10071200661F7A95CBF7EE27FF27662777275F912B
:100722000895EFEFFFEF6FE77FEF5F910895EFEF2F
:10073200FFEF6FE77FE75F9108955F932ADF7038DD
:1007420051F3903841F301240894791F23F41CF3E8
:1007520000203AF3ECCF0F921F932F933F934F93C6
:10076200112722279927689FA0018F9F302D410DC5
:10077200591F6B9F300D411D591F8E9F27D0BF9F60
:1007820025D06A9F23D0BE9F1DD0AF9F1BD0AE9FA6
:10079200110D291F391F491F591FE32FF42F652FF0
:1007A200522F4F913F912F911F910F9066232AF064
:1007B200550FEE1FFF1F661F02C073954BF2CDDE71
:1007C2005F910895100D211D391F02C0200D311DAA
:1007D200491F591F0895F195E195F0400895F0954C
:1007E20060957095E195FF4F6F4F7F4F08956F2F82
:1007F200660F660B762F0895FA9FF02DEB9FF00D92
:10080200EA9FE02DF10D08951CD0F6DF0EF4E3DF30
:1008120008950024112490E1AA0FBB1F001C111C93
:100822000E1A1F0A18F40E0E1F1E01C0A1609A951F
:1008320099F7FD01D001089504D0EBDF0EF4CBDF70
:100842000895E894F7FF02C0C6DF6894B7FF06C0B8
:10085200A095B095119600F8039400FA0895ED93CF
:10086200FD936D937C930895E881F9816A817B8180
:100872000895A881B9818A819B810895E883F983CB
:100882006A837B8308959A938A93BA93AA9308956D
:00000001FF
