:040000000C94380024
:100004000C9400000C9400000C9400000C9400006C
:100014000C9400000C9400000C9400000C9400005C
:100024000C9400000C9400000C9400000C9400004C
:100034000C9400000C9400000C9400000C9400003C
:100044000C9400000C9400000C9400000C9400002C
:100054003F0006005B004F0066006D007D00070056
:100064007F006F001300620154000000F894EE2733
:10007400ECBBF1E0FBBFEBBFE5BF8DE0A2E0BB272B
:10008400ED938A95E9F780E094E0A0E6ED9301977B
:10009400E9F7E8E6F0E085919591009761F0A59184
:1000A400B59105901590BF01F00105900D9201974F
:1000B400E1F7FB01F0CFEFE5EDBFE4E0EEBFC0E612
:1000C400D1E00C946500A5E0B0E001D0FFCFBA9375
:1000D400AA9324970E946401AA85BB85119741F0D5
:1000E400AA85BB85129721F0AA85BB85159709F4CB
:1000F40004C0E5E0F0E0EA87FB87E0E0EABBEFE07C
:10010400E1BBEFEFE4BBE0E0E0936001E093610169
:1001140000E010E0EE83EF83E9B3F0E0DF0177D095
:10012400E887F987E9B3F0E0DF0176D0AF01D801C1
:1001340073D09F01EE81FF8176D07DD0E8E0E2BBF1
:10014400E885F98570D0E05876D0E4E0E2BBFA01A6
:100154006AD071D0E2E0E2BBF90165D06CD0E1E095
:10016400E2BBE0916001F09161013196E09360019E
:10017400F0936101A0916001B09161011F9781F535
:10018400EE81FF813097F9F4EAE0F0E0EE83FF833B
:10019400E885F985309791F4E9E0F0E0E887F9879C
:1001A400042E052A41F449E050E0022E032A11F0FE
:1001B4002150304002C04150504005C0E885F985C7
:1001C4003197E887F987AA85BB85EE81FF81EA1B11
:1001D400FB0BEE83FF83E0E0E0936001E0936101B9
:1001E400AE81BF81109761F4A885B985109741F459
:1001F40000240416050621F400240216030609F05F
:1002040001C001C097CF0E946B012C960895EAE0CB
:10021400F0E00E9448010895EAE0F0E00E94430102
:100224008F01D801F4CFA2E6B1E0EE0FFF1FAE0FAD
:10023400BF1FEC910895E5BBA4E0B0E00C9422014B
:10024400109639F080ED97E00197F1F7A895119792
:10025400C9F70895F195E195F0400895002411241B
:1002640090E1AA0FBB1F001C111C0E1A1F0A18F4E0
:100274000E0E1F1E01C0A1609A9599F7FD01D001D1
:10028400089512D0EBDF0EF4E5DF0895E894B7FF8C
:1002940004C0A095B09511966894F7FDDBDFDEDF0E
:1002A400FD010EF4D7DF0895E894F7FF02C0D2DF12
:1002B4006894B7FF06C0A095B095119600F8039412
:1002C40000FA08955A934A933A932A931A930A93F5
:1002D40008955D814C813B812A81198108810895AB
:00000001FF
