:0C0000000C9464010C9400000C940000AF
:10000C000C9400000C9400000C9400000C94000064
:10001C000C9400000C9400000C9400000C94000054
:10002C000C9491010C9400000C9400000C940000B2
:10003C000C9400000C9400000C9400000C94000034
:10004C000C9400000C9400001027E80364000A00D4
:10005C000100001000011000010000000000000071
:10006C000D0A4461746120697320616E20696E749D
:10007C006567657220616E64203130202A206461CE
:10008C007461203D20300D0A000D0A44617461201A
:10009C00697320616E20696E746567657220616E8C
:1000AC0064203130202A2064617461203D2031307D
:1000BC000D0A000D0A4461746120697320616E2081
:1000CC00696E746567657220616E64203130202A18
:1000DC002064617461203D2032300D0A000D0A4409
:1000EC0061746120697320616E20696E7465676547
:1000FC007220616E64203130202A2064617461208A
:10010C003D2033300D0A000D0A446174612069737F
:10011C0020616E20696E746567657220616E642063
:10012C003130202A2064617461203D2034300D0A66
:10013C00000D0A4461746120697320616E20696E40
:10014C00746567657220616E64203130202A2064EA
:10015C00617461203D2035300D0A000D0A44617434
:10016C006120697320616E20696E74656765722009
:10017C00616E64203130202A2064617461203D203E
:10018C0036300D0A000D0A446174612069732061D8
:10019C006E20696E746567657220616E6420313003
:1001AC00202A2064617461203D2037300D0A000D37
:1001BC000A4461746120697320616E20696E7465F4
:1001CC0067657220616E64203130202A206461746E
:1001DC0061203D2038300D0A000D0A446174612005
:1001EC00697320616E20696E746567657220616E3B
:1001FC0064203130202A2064617461203D20393024
:10020C000D0A006C63642064656C657465000D0AEE
:10021C0048692C206D79206E616D652069732041D1
:10022C00726D616E2C2077656C636F6D6520746FD9
:10023C00204C616230370D0A000D0A4E6F20667536
:10024C006E6374696F6E20646566696E65640D0A11
:10025C00000080C001000200660004000400680079
:10026C00290060016C002A00890195002A00B30165
:10027C00BF002A00DD01E9002A00070213012A0051
:10028C0031023D012A005B0267012A0085029101BF
:10029C002A00AF02BB012A00D902E50103000303C7
:1002AC0092000B0006030F022B0011031A02180018
:1002BC003C03450202005C035E020000F894EE274A
:1002CC00ECBBF1E0FBBFEBBFE5BF8DE0A2E0BB27D1
:1002DC00ED938A95E9F780E094E0A0E6ED93019721
:1002EC00E9F7E0E6F2E085919591009761F0A59130
:1002FC00B59105901590BF01F00105900D920197F5
:10030C00E1F7FB01F0CFEFE5EDBFE4E0EEBFC0E6B7
:10031C00D1E00C9427020A921A92FA926A937A9379
:10032C008A939A93AA93BA93EA93FA93EFB7EA93C0
:10033C001A930A931BB10CB1E02FF0E0E033A0E06C
:10034C00FA0729F40E946902A0E6B1E068C0E13323
:10035C00A0E0FA0729F40E946902A9E8B1E05FC0A5
:10036C00E233A0E0FA0729F40E946902A3EBB1E0A2
:10037C0056C0E333A0E0FA0729F40E946902ADED00
:10038C00B1E04DC0E433A0E0FA0729F40E94690201
:10039C00A7E0B2E044C0E533A0E0FA0721F493D023
:1003AC00A1E3B2E03CC0E633A0E0FA0721F48BD025
:1003BC00ABE5B2E034C0E733A0E0FA0721F483D018
:1003CC00A5E8B2E02CC0E833A0E0FA0721F47BD01A
:1003DC00AFEAB2E024C0E933A0E0FA0721F473D00D
:1003EC00A9EDB2E01CC0E434A0E0FA0769F4A3E084
:1003FC00B3E00E94C80267D0E0E0EA93A0E056D0D8
:10040C00A6E0B3E081D00DC0E834A0E0FA0721F4F7
:10041C005AD0A1E1B3E003C056D0ACE3B3E00E94E4
:10042C00C80209911991E991EFBFF991E991B9913C
:10043C00A9919991899179916991F9901990099063
:10044C001895EFEFE4BBE0E0E5BBE1E0E1BBE0E0F9
:10045C00EBB9E8E9EAB9E6E8E0BDE0E0E0BDE3E3EA
:10046C00E9B9A0E15BD07894FFCFAA93E5B3EF7024
:10047C00AE2FE881E07FEA2BE5BB8DE08A95F1F7A2
:10048C00AA9A8DE08A95F1F7AA988DE08A95F1F7F2
:10049C000C94C602AA93A881E8DFE881E295E88370
:1004AC00A881E3DF85E88A95F1F76AC0AA93E88111
:1004BC00F0E0E45AFC4FE081A981AE0FEBDF6980DC
:1004CC00988022960895A2E00E94D602ACE0E2DF6A
:1004DC00A1E00E94D602E0E09E2E6E2E0895AA9313
:1004EC00A881AA3011F0681448F0E0E0EA939394E4
:1004FC00A92DDCDFA881AA3009F442C06394A89A24
:10050C00A881C8DFA8983CC0BA93AA931A930E94FA
:10051C00DC0219F0A12FE3DFFACF3FC0AA93E4B3BA
:10052C00E06FE4BBA29AA09AA19AAA98A898A9985D
:10053C008880E881E058E0935E03E881E054E09322
:10054C005F03A4E1B0E00E94EC020E94E4020E946E
:10055C00E4020E94E402A0E288DF88EC90E00197BC
:10056C00F1F7A8E297DFA4E095DFA5E893DFA6E01A
:10057C0091DFA9DF05C0AA935D9BFECFE881ECB9A2
:10058C0021960895BA93AA931A930E94DC0219F04B
:10059C00A12FF1DFFACFAAE0EEDF188123960895A0
:1005AC000E945002A3E0B0E00C94EC02A981BA8145
:1005BC00ED91A983BA831E2FE0300895A0E30E9429
:1005CC003B0288EC90E00197F1F70895109639F012
:1005DC0080ED97E00197F1F7A8951197C9F7089569
:00000001FF
