:0A0000000C9437000C9400000C94DF
:10000A0000000C9400000C9400000C9400000C9466
:10001A0000000C9400000C9400000C9400000C9456
:10002A0000000C9400000C9400000C9400000C9446
:10003A0000000C9400000C9400000C9400000C9436
:10004A0000000C9400000C9400001027E8036400E0
:10005A000A00010000100001100001000D0A00282A
:10006A0025732900F894EE27ECBBF1E0FBBFEBBF48
:10007A00E5BF8DE0A2E0BB27ED938A95E9F780E022
:10008A0094E0A0E6ED930197E9F7EFE5EDBFE4E030
:10009A00EEBFC0E6D1E00C945200E1E0E1BBE0E043
:1000AA00EBB9E8E1EAB9E6E8E0BDE0E0E0BDE3E3A8
:1000BA00E9B9E0E6F1E0FA93EA93ABE0B0E00E9436
:1000CA00A200E6E6F0E0FA93EA9380E00E94770263
:1000DA002296E4E7F1E0FA93EA93E9E6F0E0FA938C
:1000EA00EA93E0E6F1E0662777270E94FA0284E0C5
:1000FA000E9449022896A4E7B1E00E949000FFCF2F
:10010A005F9BFECFECB10895AA935D9BFECFE88179
:10011A00ECB921960895BA93AA931A93A981BA8140
:10012A00ED91A983BA831E2FE03019F0A12FECDFDD
:10013A00F5CFAAE0E9DF188137C0BA93AA930E94E3
:10014A00FF020E811F8128853985002E012AD9F0E8
:10015A00D7DF5E2F583051F4AE81BF810A171B07D3
:10016A0020F4215030400F5F1F4FF2CF5A3059F020
:10017A003F932F932F5F3F4FE52FAF91BF91EC93A2
:10018A0001501040E2CFD901E0E0EC93E885F9850F
:10019A000E9406032A960895BA93AA93AA81B4DF05
:1001AA00A881B9810E94AF0223960895BA93AA93AF
:1001BA001A930A93AA81BB8112960E94F20230977F
:1001CA0029F1AA81BB8114960E94F2028F0130970D
:1001DA0061F00230E0E01E0780F0F80131978F01EC
:1001EA00AA81BB811496ED93FC93AA81BB811296D6
:1001FA000E94AF023197AC81A083AA81BB810E9481
:10020A00F202FF2312F00E94AF0206C0AA81BB814C
:10021A00EFEFFFEFED93FC9319810881259608957E
:10022A00BA93AA9326970E94FF0210E0AC85BD8577
:10023A00E0E0F0E0ED93FC93EA89FB893196EA8BE2
:10024A00FB8B3197E4912E2FE03009F415C1E12F91
:10025A00E03039F4253211F411E002C00E94B502EF
:10026A000AC1E130A9F4253219F40E94B50202C18B
:10027A0012E040E000E02D3211F401E0FCC02B3224
:10028A0011F44BE2F8C0203211F440E2F4C002C08B
:10029A00E23039F450E013E0203311F40068EBC087
:1002AA0003C0E33009F0E7C0203310F02A3308F026
:1002BA0007C0AAE05A9F502DE22FE0535E0FDBC021
:1002CA00E22FE33649F40E94BC02E889F989A48145
:1002DA00AA930E94C202CEC0E33741F40E94BC0234
:1002EA000E94C8020E9496021E2F0AC0E03761F4DB
:1002FA000E94BC020E94C8020E94A2021E2F08602D
:10030A0002600F7730E034C0E43611F0E93611F4B8
:10031A00046002C0E53731F4E4E5F0E0EE83FF83E0
:10032A0015E00CC0E83511F4086003C0E83709F09D
:10033A00A1C0EEE5F0E0EE83FF8314E002FF14C0F3
:10034A000E94BC020E94D202AB85AA233AF4EA8533
:10035A00FB850E94EE02EA87FB874DE2403011F0EE
:10036A001F5F01C00B7F04C00E94BC020E94D20220
:10037A0000FD11C0151778F407FF08C002FF04C07A
:10038A000B7F242F115001C020E301C020E20E94FC
:10039A00B5025150EFCF312F01FF17C03030A1F015
:1003AA0003FF06C0EE81FF812591EE83FF8305C01E
:1003BA00AE81BF812D91AE83BF830E94B5025030BA
:1003CA0009F051503150EACF4BC020E3EE81FF8152
:1003DA000E94F602E887F987EE81FF813296EE8362
:1003EA00FF83E885F985AA85BB85AE17BF0750F05C
:1003FA002F5FA885B985EA85FB85EA1BFB0BEA878F
:10040A00FB87EFCF2A3328F003FF02C0295F01C020
:10041A00295D04FD1AC0213320F4A885B9851197F6
:10042A0009F409C0531710F000FF01C013C020E2FD
:10043A0007FF0BC020E3006102FF07C00B7F4A934E
:10044A000E94C202503009F051500E94B502503049
:10045A0009F051503150A885B985129708F0B5CFE7
:10046A0000FF08C0503031F05150E0E2EA930E9498
:10047A00C202F8CF10E0E0CEAC85BD850E94F20240
:10048A000E94060364960895FF92F82E26970E940A
:10049A0001030E94DA02309719F4EFEFFFEF1DC053
:1004AA00DE0116960E94EA028D010E94DA02EE83AC
:1004BA00FF83E0E0E887E987DE011A960E94E102FD
:1004CA00EBEDF0E0FA93EA93DE011A96A9DE9F01BA
:1004DA00AE81BF81E0E0EC93F9010E9408032A96FD
:1004EA00FF900895FF92F82E26971A930A93DE0139
:1004FA0014960E94EA028D01E0E0EC83ED83EE831C
:10050A00EF83DE0118960E94E102E1EDF0E0FA9332
:10051A00EA93DE01189684DE198108812896FF90F5
:10052A000895BA93AA93A991B991EE27FF276D91DD
:10053A00662311F03196FBCF0895BA93AA93AA279E
:10054A00BB27E991F9910590002011F01196FBCF94
:10055A00FD010895ED91FD913196FE93EE93089574
:10056A002A93AD85BE85EF85F88909950895E889AE
:10057A00F9893497E88BF98B0895AD85BE85EF85A7
:10058A00F88909950895A889B98914960E94F202F2
:10059A00EE83FF83AE81BF810895A889B989149635
:1005AA000E94F202EA87FB870895DE011C960E94E8
:1005BA00EA020E94F20208950E94EA020E94F202EE
:1005CA00FA93EA931A930A9308950024AF0DB01D83
:1005DA000895F195E195F0400895ED91FC911197F8
:1005EA0008950590F491E02D08957A936A93FA9309
:1005FA00EA9308955A934A933A932A931A930A9339
:10060A0008955D814C813B812A8119810881089571
:00000001FF
