:0E0000000C94FB000C9400000C94D3010C94A3
:10000E0000000C9400000C9400000C9400000C9462
:10001E0000000C9400000C9400000C9400000C9452
:10002E0000000C9400000C9400000C9400000C9442
:10003E0000000C9400000C9400000C9400000C9432
:10004E0000000C94000030313233343536373839F5
:10005E0041424344454641726D616E20526961735F
:10006E006900393633383238330057656C636F6D3B
:10007E006520746F20746865206F6E6C696E6520E4
:10008E006C616220636C61737365732064756520A7
:10009E00746F20436F726F6E612064697365617354
:1000AE00652E00202020202020202020202020200F
:1000BE0020202000456E746572206E756D6265722B
:1000CE0020666F72535045454428302D3530293AFD
:1000DE002000535045454420454520666F72200050
:1000EE00536574207375636365737366756C6C7991
:1000FE0000456E746572206E756D62657220666F56
:10010E007254494D4528302D393973293A200054FF
:10011E00494D4520454520666F722000456E746539
:10012E0072206E756D62657220666F725745494713
:10013E00485428302D393946293A20005745494729
:10014E00485420454520666F722000456E746572D6
:10015E00206E756D62657220666F7254454D502823
:10016E0032302D383043293A200054454D50204529
:10017E004520666F7220000080C01000AD02540052
:10018E000C006001640039006C0178000100A501CB
:10019E006F001100A601B1001E00B701C2000E00D3
:1001AE00D501E0001100E301EE001E00F401FF0096
:1001BE000D0012021D0111001F02EE002000300280
:1001CE002A010F0050024A0111005F02EE001F00CB
:1001DE00700259010D008F02780111009C02EE0091
:1001EE000200BD0286010000F894EE27ECBBF1E0A0
:1001FE00FBBFEBBFE5BF8DE0A2E0BB27ED938A9579
:10020E00E9F780E094E0A0E6ED930197E9F7E8E8DE
:10021E00F1E085919591009761F0A591B5910590CA
:10022E001590BF01F00105900D920197E1F7FB01CA
:10023E00F0CFEFE5EDBFE4E0EEBFC0E6D1E00C9409
:10024E00F8012297E0E0E883E9830E9401030CE6BF
:10025E0011E025EA31E046EA51E0F6D00E94AC0208
:10026E00F3D0E0E0EE83EF83D8010E948B02AE81E3
:10027E00BF81AE17BF0730F5E7D0E0E0EA93A0E00C
:10028E00D6D03A932A93E885F985E00FF11FFA93B9
:10029E00EA93A0E10E949702D901F7D0EE81FF8187
:1002AE00309721F4AEEEB2E00E94F202ACE8B0E07C
:1002BE000E94F2020E94AC02EE81FF813196EE8323
:1002CE00FF83D2CFCECF1A930A930E94B4020E941C
:1002DE00B902E9F30E94B902E9F70E94C002E9F7F8
:1002EE000E94C002D1F3EFE10E94C90211F010E0AA
:1002FE0013C0EFE20E94C90211F011E00DC0EFE44D
:10030E000E94C90211F012E007C0EFE80E94C90274
:10031E0011F013E001C0E7CFE02FF0E0E130A0E0F4
:10032E00FA0741F40E94CF02AC919AD00E94CF02FC
:10033E005C9020C0E230A0E0FA0739F40E94D802A7
:10034E00A1810E94E102518015C0E430A0E0FA07BD
:10035E0039F40E94D802A2810E94E10252800AC0A2
:10036E00E830A0E0FA0731F40E94D802A3810E947F
:10037E00E1025380099119910895EFEFEABBE0E095
:10038E00EBBB0895EBB7E068EBBFECE0E5BFE0E058
:10039E00E4BFE0E8EABF08950A921A92FA926A93CD
:1003AE007A938A939A93AA93BA93EA93FA93EFB7AE
:1003BE00EA93E1E0E4BBE5BB0E94B40284DF0E9455
:1003CE00B402E0E0E5BBE991EFBFF991E991B99193
:1003DE00A9919991899179916991F99019900990C2
:1003EE001895CBDFCFDFA0E161D02BDFFFCFAA9333
:1003FE00EBB3EF70AE2FE881E07FEA2BEBBB8DE025
:10040E008A95F1F7DA9A8DE08A95F1F7DA988DE010
:10041E008A95F1F777C0AA93A881E9DFE881E29582
:10042E00E883A881E4DF85E88A95F1F76BC0AA938B
:10043E00E881F0E0E354FD4FE081A981AE0FEBDFE0
:10044E004980788022960895A2E00E94E402ACE0F2
:10045E00E2DFA1E00E94E402E0E07E2E4E2E08953F
:10046E00AA93A881AA3011F0461448F0E0E0EA936E
:10047E007394A72DDCDFA881AA3009F443C04394FE
:10048E00D89AA881C8DFD8983DC0BA93AA931A9378
:10049E00A981BA81ED91A983BA831E2FE03019F09C
:1004AE00A12FDEDFF5CF188123960895AA93EAB324
:1004BE00E06FEABBD29AD09AD19ADA98D898D998A6
:1004CE006880E881E058E093BF02E881E054E09351
:1004DE00C002A4E1B0E00E94F2020E94EA020E9471
:1004EE00EA020E94EA02A0E282DF88EC90E0019725
:1004FE00F1F7A8E290DFA4E08EDFA5E88CDFA6E09E
:10050E008ADFA2DF21960895BA93AA93A991B99191
:10051E00EE27FF276D91662311F03196FBCF0895DC
:10052E00AA937991E991F991A991B991CD01772386
:10053E0051F07A9561916D936623C9F7772319F07F
:10054E007A956D93FBCFFC010895E0E0EA93A1E06C
:10055E000E941E02DA010C944C02E0EFE7BBEFEFB3
:10056E00E8BB0895EFEFE8BBE6B3EF700E2F003057
:10057E000895A9E1B0E00E94F202E6B3EF700E2FEB
:10058E0000300895E8BBE6B3EF700E2F00300895EB
:10059E00E12FADEAB2E0F0E00E94FC02AE0FBF1F09
:1005AE000895E12FADEAB2E0F0E00E94FC02EA0FFE
:1005BE00FB1F08950E943702F4CF0E941202A3E09F
:1005CE00B0E00C94F202A0E30E94FE0188EC90E0F1
:1005DE000197F1F70895109639F080ED97E00197A5
:1005EE00F1F7A8951197C9F70895EE0FFF1FEE0FBB
:1005FE00FF1F08955A934A933A932A931A930A9394
:10060E0008955D814C813B812A811981088108956D
:00000001FF
