:080000000C947F000C945A01DE
:100008000C94AA010C9400000C9400000C940000BD
:100018000C9400000C9400000C9400000C94E30174
:100028000C9400000C9400000C9400000C94000048
:100038000C9400000C9400000C9400000C94000038
:100048000C9400000C9400000C9400001027E803A6
:1000580064000A0001000010000110000100000007
:10006800000000003030002564003A0020004345BD
:100078003A2046554C4C0043453A200043453A2027
:10008800313030300030303A30303A30303A303079
:10009800000080C0060008006600030060016C00D4
:1000A800030063016C00030066016C000300690132
:1000B8006C0002006C01720002006E017200020006
:1000C8007001720002007201740009007401760068
:1000D80005007D017F0009008201840005008B0175
:1000E8007F000C0090018D000C009C018D00020027
:1000F800AC019A000000F894EE27ECBBF1E0FBBFDE
:10010800EBBFE5BF8DE0A2E0BB27ED938A95E9F749
:1001180080E094E0A0E6ED930197E9F7ECE9F0E0E0
:1001280085919591009761F0A591B59105901590ED
:10013800BF01F00105900D920197E1F7FB01F0CFA7
:10014800EFE5EDBFE4E0EEBFC0E6D1E00C94F601C8
:10015800E0E0EABBEBBBE7BBE8BBEFEFE4BBE0E00A
:10016800E5BBE1BBE2BB0895E5E0E3BFE2EBE2BF3C
:10017800E0E0ECBFEFBDEEBDEDBDECBDE7BDE6BD1B
:10018800EBBDEABDE9BDE8BDE2BDE5BDE4BDE3BD4B
:10019800E1E0E9BF0895EBB7E06CEBBFEFE0E5BF46
:1001A800E0E0E4BFE0ECEABFE0E0EAB9E0E8E8B9A3
:1001B800E0E0E0BFE6B9EDB9E6BF0895E0E0E7BBEF
:1001C800E8EEF3E0E093AA01F093AB017894089588
:1001D8002297E9E6F1E0E883F9830E94DE0400E66D
:1001E80011E023E631E046E651E0A8EAB1E00E94DA
:1001F8005604A091A801B091A901A336E0E0BE077A
:10020800E1F4E0E0E093A801E093A901F60131965A
:100218006F01EBE3F0E0EC15FD0579F4CC24DD2467
:10022800F50131965F01EBE3F0E0EA15FB0529F4EF
:10023800AA24BB24F40131964F01EE81FF81FA9381
:10024800EA930E945C04E091A801F091A9010E9440
:1002580061045A934A930E945C04F6010E94610467
:100268003A932A930E945C04F5010E9461040E945B
:100278006A04F4010E9461040E946D04A0E0D8D0D1
:10028800D80115D1ACE6B1E012D1D90110D1AEE652
:10029800B1E00DD1DA010BD1A0E7B1E008D1AE8110
:1002A800BF8105D10E94E504289608950E94720432
:1002B8001A930A9302E711E0B29921C0AAEAB1E0C1
:1002C800ED91FD913197FE93EE930E948004309753
:1002D80039F40E946D04A1E0ABD0A4E7B1E00EC0F0
:1002E8000E946A040E9480040E9461040E946D04B6
:1002F800A1E09ED0ADE7B1E0DAD0D801D8D0B3996B
:1003080022C0A091AA01B091AB01A83EE3E0BE07CC
:1003180039F40E946D04A1E08BD0A2E8B1E012C0CC
:10032800AAEAB1E00E9456040E946A040E9480046E
:100338000E9461040E946D04A1E07AD0ABE8B1E0AC
:10034800B6D0D801B4D0099119913EC00E94720468
:10035800B49908C00E946D04A0E06AD005DFE1E00E
:10036800F0E03F01B59905C0EAE0F0E0E615F705D1
:1003780009F01DC00E946D04A0E05AD0A0E9B1E0C8
:1003880096D00E946D04A0E053D0ACE9B1E08FD0C4
:10039800E1E0F0E03F0188249924AA24BB24CC247E
:1003A800DD24E0E0E093A801E093A90107C0B59936
:1003B80005C0EAE0F0E03F01E0E0E3BF05C00E94CD
:1003C8007204E2EBE2BF04DFE991EFBFF991E99132
:1003D800B991A9919991899179916991F990199017
:1003E80009901895B5DED7DEA0E172D0E7DEFFCF21
:1003F800AA93E5B3EF70AE2FE881E07FEA2BE5BB67
:100408008DE08A95F1F7AA9A8DE08A95F1F7AA9876
:100418008DE08A95F1F789C0AA93A881E9DFE88180
:10042800E295E883A881E4DF85E88A95F1F77DC045
:10043800AA93E881F0E0E455FE4FE081A981AE0F70
:10044800EBDFE981E093B001E881E093B101229606
:100458000895A2E00E948504ACE0DEDFA1E00E94DE
:100468008504E0E0E093B101E093B0010895AA9318
:10047800A881AA3031F0E091B201A091B001AE1785
:1004880060F0E0E0EA93A091B101AF5FA093B10101
:10049800CFDFA881AA3009F448C0E091B001EF5F2E
:1004A800E093B001A89AA881B7DFA8983EC0BA9394
:1004B800AA931A93A981BA81ED91A983BA831E2FB1
:1004C800E03019F0A12FD3DFF5CF188123960895D6
:1004D800AA93E4B3E06FE4BBA29AA09AA19AAA985F
:1004E800A898A998E881E093B201E058E093AE019A
:1004F800E881E054E093AF01A4E1B0E00E94BF04BA
:100508000E948B040E948B040E948B04A0E270DF7F
:1005180088EC90E00197F1F7A8E27EDFA4E07CDFA9
:10052800A5E87ADFA6E078DF94DF21960895BA93EC
:10053800AA931A930A93AA81BB8112960E94D104A6
:10054800309729F1AA81BB8114960E94D1048F01AA
:10055800309761F00230E0E01E0780F0F801319733
:100568008F01AA81BB811496ED93FC93AA81BB816C
:1005780012960E9456043197AC81A083AA81BB8150
:100588000E94D104FF2312F00E94560406C0AA81DB
:10059800BB81EFEFFFEFED93FC931981088125965E
:1005A8000895BA93AA9326970E94DE0410E0AC85BA
:1005B800BD85E0E0F0E0ED93FC93EA89FB89319694
:1005C800EA8BFB8B3197E4912E2FE03009F415C1AB
:1005D800E12FE03039F4253211F411E002C00E9415
:1005E80093040AC1E130A9F4253219F40E94930456
:1005F80002C112E040E000E02D3211F401E0FCC03D
:100608002B3211F44BE2F8C0203211F440E2F4C06E
:1006180002C0E23039F450E013E0203311F40068EE
:10062800EBC003C0E33009F0E7C0203310F02A33F1
:1006380008F007C0AAE05A9F502DE22FE0535E0F42
:10064800DBC0E22FE33649F40E949A04E889F9896D
:10065800A481AA930E94A004CEC0E33741F40E946B
:100668009A040E94A6040E943D041E2F0AC0E03787
:1006780061F40E949A040E94A6040E9449041E2F55
:10068800086002600F7730E034C0E43611F0E936D4
:1006980011F4046002C0E53731F4E4E5F0E0EE83DC
:1006A800FF8315E00CC0E83511F4086003C0E83793
:1006B80009F0A1C0EEE5F0E0EE83FF8314E002FF4D
:1006C80014C00E949A040E94B004AB85AA233AF48D
:1006D800EA85FB850E94CD04EA87FB874DE240301E
:1006E80011F01F5F01C00B7F04C00E949A040E9492
:1006F800B00400FD11C0151778F407FF08C002FF09
:1007080004C00B7F242F115001C020E301C020E258
:100718000E9493045150EFCF312F01FF17C03030A2
:10072800A1F003FF06C0EE81FF812591EE83FF83D0
:1007380005C0AE81BF812D91AE83BF830E94930413
:10074800503009F051503150EACF4BC020E3EE81D0
:10075800FF810E94D504E887F987EE81FF813296F0
:10076800EE83FF83E885F985AA85BB85AE17BF07A9
:1007780050F02F5FA885B985EA85FB85EA1BFB0B3E
:10078800EA87FB87EFCF2A3328F003FF02C0295FEF
:1007980001C0295D04FD1AC0213320F4A885B9855C
:1007A800119709F409C0531710F000FF01C013C0D6
:1007B80020E207FF0BC020E3006102FF07C00B7FA8
:1007C8004A930E94A004503009F051500E949304AB
:1007D800503009F051503150A885B985129708F06A
:1007E800B5CF00FF08C0503031F05150E0E2EA9335
:1007F8000E94A004F8CF10E0E0CEAC85BD850E9431
:10080800D1040E94E50464960895FF92F82E269775
:100818000E94E0040E94B804309719F4EFEFFFEF4C
:1008280023C0DE0116960E94C9048D010E94B804F7
:10083800EE83FF83E0E0E887E987DE011A960E94ED
:10084800C9040E94D104FA93EA931A930A93EBE934
:10085800F2E0FA93EA93DE011A96A3DE9F01AE81D5
:10086800BF81E0E0EC93F9010E94E7042A96FF902B
:100878000895BA93AA93A991B991EE27FF276D918C
:10088800662311F03196FBCF0895BA93AA93AA274D
:10089800BB27E991F9910590002011F01196FBCF43
:1008A800FD010895ED91FD913196FE93EE93089523
:1008B800EFE6F0E0FA93EA930895662777270E9417
:1008C800D90484E00E940904289608951A930A938B
:1008D800EFCF0E942D02E0E0EA9308950A921A925F
:1008E800FA926A937A938A939A93AA93BA93EA9319
:1008F800FA93EFB7EA930895E091AA01F091AB015A
:1009080008950E941002A3E0B0E00C94BF04A0E395
:100918000E94FC0188EC90E00197F1F708952A9372
:10092800AD85BE85EF85F88909950895E889F98927
:100938003497E88BF98B0895AD85BE85EF85F889E6
:1009480009950895A889B98914960E94D104EE835F
:10095800FF83AE81BF810895A889B98914960E9442
:10096800D104EA87FB870895DE011C960E94C9041A
:100978000E94D1040895109639F080ED97E0019710
:10098800F1F7A8951197C9F708950024AF0DB01D88
:100998000895F195E195F0400895ED91FC91119736
:1009A80008950590F491E02D08957A936A93FA9347
:1009B800EA9308955A934A933A932A931A930A9377
:1009C80008955D814C813B812A81198108810895B0
:00000001FF
